{
  "_format": "hh-sol-artifact-1",
  "contractName": "Betcaster",
  "sourceName": "contracts/Betcaster.sol",
  "abi": [
    {
      "inputs": [
        {
          "internalType": "string[]",
          "name": "assets",
          "type": "string[]"
        },
        {
          "internalType": "address[]",
          "name": "priceFeeds",
          "type": "address[]"
        }
      ],
      "stateMutability": "nonpayable",
      "type": "constructor"
    },
    {
      "anonymous": false,
      "inputs": [
        {
          "indexed": false,
          "internalType": "string",
          "name": "symbol",
          "type": "string"
        },
        {
          "indexed": false,
          "internalType": "address",
          "name": "priceFeed",
          "type": "address"
        }
      ],
      "name": "AssetAdded",
      "type": "event"
    },
    {
      "anonymous": false,
      "inputs": [
        {
          "indexed": false,
          "internalType": "string",
          "name": "symbol",
          "type": "string"
        }
      ],
      "name": "AssetRemoved",
      "type": "event"
    },
    {
      "anonymous": false,
      "inputs": [
        {
          "indexed": false,
          "internalType": "string",
          "name": "betId",
          "type": "string"
        },
        {
          "indexed": false,
          "internalType": "address",
          "name": "betContract",
          "type": "address"
        },
        {
          "indexed": false,
          "internalType": "address",
          "name": "creator",
          "type": "address"
        },
        {
          "indexed": false,
          "internalType": "uint256",
          "name": "stakeAmount",
          "type": "uint256"
        },
        {
          "indexed": false,
          "internalType": "string",
          "name": "asset",
          "type": "string"
        }
      ],
      "name": "BetCreated",
      "type": "event"
    },
    {
      "anonymous": false,
      "inputs": [
        {
          "indexed": false,
          "internalType": "string",
          "name": "betId",
          "type": "string"
        },
        {
          "indexed": false,
          "internalType": "bool",
          "name": "yayWon",
          "type": "bool"
        },
        {
          "indexed": false,
          "internalType": "uint256",
          "name": "totalPrize",
          "type": "uint256"
        }
      ],
      "name": "BetResolved",
      "type": "event"
    },
    {
      "anonymous": false,
      "inputs": [
        {
          "indexed": true,
          "internalType": "address",
          "name": "previousOwner",
          "type": "address"
        },
        {
          "indexed": true,
          "internalType": "address",
          "name": "newOwner",
          "type": "address"
        }
      ],
      "name": "OwnershipTransferred",
      "type": "event"
    },
    {
      "anonymous": false,
      "inputs": [
        {
          "indexed": false,
          "internalType": "string",
          "name": "betId",
          "type": "string"
        },
        {
          "indexed": false,
          "internalType": "address",
          "name": "winner",
          "type": "address"
        },
        {
          "indexed": false,
          "internalType": "uint256",
          "name": "amount",
          "type": "uint256"
        }
      ],
      "name": "PrizeDistributed",
      "type": "event"
    },
    {
      "anonymous": false,
      "inputs": [
        {
          "indexed": false,
          "internalType": "string",
          "name": "betId",
          "type": "string"
        },
        {
          "indexed": false,
          "internalType": "address",
          "name": "voter",
          "type": "address"
        },
        {
          "indexed": false,
          "internalType": "bool",
          "name": "isYay",
          "type": "bool"
        },
        {
          "indexed": false,
          "internalType": "uint256",
          "name": "amount",
          "type": "uint256"
        }
      ],
      "name": "VoteCast",
      "type": "event"
    },
    {
      "inputs": [],
      "name": "MAX_DURATION",
      "outputs": [
        {
          "internalType": "uint256",
          "name": "",
          "type": "uint256"
        }
      ],
      "stateMutability": "view",
      "type": "function"
    },
    {
      "inputs": [],
      "name": "MIN_DURATION",
      "outputs": [
        {
          "internalType": "uint256",
          "name": "",
          "type": "uint256"
        }
      ],
      "stateMutability": "view",
      "type": "function"
    },
    {
      "inputs": [],
      "name": "MIN_VOTE_STAKE",
      "outputs": [
        {
          "internalType": "uint256",
          "name": "",
          "type": "uint256"
        }
      ],
      "stateMutability": "view",
      "type": "function"
    },
    {
      "inputs": [],
      "name": "PLATFORM_STAKE",
      "outputs": [
        {
          "internalType": "uint256",
          "name": "",
          "type": "uint256"
        }
      ],
      "stateMutability": "view",
      "type": "function"
    },
    {
      "inputs": [
        {
          "internalType": "string",
          "name": "symbol",
          "type": "string"
        },
        {
          "internalType": "address",
          "name": "priceFeed",
          "type": "address"
        }
      ],
      "name": "addAsset",
      "outputs": [],
      "stateMutability": "nonpayable",
      "type": "function"
    },
    {
      "inputs": [
        {
          "internalType": "string",
          "name": "betId",
          "type": "string"
        },
        {
          "internalType": "bool",
          "name": "isYay",
          "type": "bool"
        }
      ],
      "name": "castVote",
      "outputs": [],
      "stateMutability": "payable",
      "type": "function"
    },
    {
      "inputs": [
        {
          "internalType": "string",
          "name": "betId",
          "type": "string"
        }
      ],
      "name": "claimPrize",
      "outputs": [],
      "stateMutability": "nonpayable",
      "type": "function"
    },
    {
      "inputs": [
        {
          "internalType": "string",
          "name": "betId",
          "type": "string"
        },
        {
          "internalType": "uint256",
          "name": "voteStake",
          "type": "uint256"
        },
        {
          "internalType": "uint256",
          "name": "duration",
          "type": "uint256"
        },
        {
          "internalType": "bool",
          "name": "isVerified",
          "type": "bool"
        },
        {
          "internalType": "string",
          "name": "asset",
          "type": "string"
        },
        {
          "internalType": "uint256",
          "name": "priceThreshold",
          "type": "uint256"
        },
        {
          "internalType": "bool",
          "name": "isPump",
          "type": "bool"
        }
      ],
      "name": "createBet",
      "outputs": [],
      "stateMutability": "payable",
      "type": "function"
    },
    {
      "inputs": [
        {
          "internalType": "string",
          "name": "betId",
          "type": "string"
        }
      ],
      "name": "getBetInfo",
      "outputs": [
        {
          "components": [
            {
              "internalType": "address",
              "name": "creator",
              "type": "address"
            },
            {
              "internalType": "uint256",
              "name": "platformStake",
              "type": "uint256"
            },
            {
              "internalType": "uint256",
              "name": "voteStake",
              "type": "uint256"
            },
            {
              "internalType": "uint256",
              "name": "expiryTime",
              "type": "uint256"
            },
            {
              "internalType": "bool",
              "name": "isVerified",
              "type": "bool"
            },
            {
              "internalType": "string",
              "name": "asset",
              "type": "string"
            },
            {
              "internalType": "uint256",
              "name": "startPrice",
              "type": "uint256"
            },
            {
              "internalType": "uint256",
              "name": "priceThreshold",
              "type": "uint256"
            },
            {
              "internalType": "bool",
              "name": "isPump",
              "type": "bool"
            },
            {
              "internalType": "bool",
              "name": "isResolved",
              "type": "bool"
            },
            {
              "internalType": "uint256",
              "name": "totalYayVotes",
              "type": "uint256"
            },
            {
              "internalType": "uint256",
              "name": "totalNayVotes",
              "type": "uint256"
            },
            {
              "internalType": "uint256",
              "name": "prizePool",
              "type": "uint256"
            }
          ],
          "internalType": "struct IBetcaster.BetInfo",
          "name": "",
          "type": "tuple"
        }
      ],
      "stateMutability": "view",
      "type": "function"
    },
    {
      "inputs": [
        {
          "internalType": "string",
          "name": "asset",
          "type": "string"
        }
      ],
      "name": "getPriceFeed",
      "outputs": [
        {
          "internalType": "address",
          "name": "",
          "type": "address"
        }
      ],
      "stateMutability": "view",
      "type": "function"
    },
    {
      "inputs": [],
      "name": "getSupportedAssets",
      "outputs": [
        {
          "internalType": "string[]",
          "name": "",
          "type": "string[]"
        }
      ],
      "stateMutability": "view",
      "type": "function"
    },
    {
      "inputs": [
        {
          "internalType": "string",
          "name": "betId",
          "type": "string"
        },
        {
          "internalType": "address",
          "name": "user",
          "type": "address"
        }
      ],
      "name": "getUserVote",
      "outputs": [
        {
          "internalType": "bool",
          "name": "isYay",
          "type": "bool"
        },
        {
          "internalType": "uint256",
          "name": "amount",
          "type": "uint256"
        }
      ],
      "stateMutability": "view",
      "type": "function"
    },
    {
      "inputs": [
        {
          "internalType": "string",
          "name": "betId",
          "type": "string"
        }
      ],
      "name": "getWinningVote",
      "outputs": [
        {
          "internalType": "bool",
          "name": "yayWon",
          "type": "bool"
        }
      ],
      "stateMutability": "view",
      "type": "function"
    },
    {
      "inputs": [],
      "name": "owner",
      "outputs": [
        {
          "internalType": "address",
          "name": "",
          "type": "address"
        }
      ],
      "stateMutability": "view",
      "type": "function"
    },
    {
      "inputs": [
        {
          "internalType": "string",
          "name": "symbol",
          "type": "string"
        }
      ],
      "name": "removeAsset",
      "outputs": [],
      "stateMutability": "nonpayable",
      "type": "function"
    },
    {
      "inputs": [],
      "name": "renounceOwnership",
      "outputs": [],
      "stateMutability": "nonpayable",
      "type": "function"
    },
    {
      "inputs": [
        {
          "internalType": "string",
          "name": "betId",
          "type": "string"
        }
      ],
      "name": "resolveBet",
      "outputs": [],
      "stateMutability": "nonpayable",
      "type": "function"
    },
    {
      "inputs": [
        {
          "internalType": "address",
          "name": "newOwner",
          "type": "address"
        }
      ],
      "name": "transferOwnership",
      "outputs": [],
      "stateMutability": "nonpayable",
      "type": "function"
    }
  ],
  "bytecode": "0x60806040523480156200001157600080fd5b50604051620032a4380380620032a48339810160408190526200003491620004ce565b6001600055620000443362000110565b80518251146200009b5760405162461bcd60e51b815260206004820152601660248201527f417272617973206c656e677468206d69736d617463680000000000000000000060448201526064015b60405180910390fd5b60005b82518110156200010757620000f2838281518110620000c157620000c16200060c565b6020026020010151838381518110620000de57620000de6200060c565b60200260200101516200016260201b60201c565b80620000fe8162000622565b9150506200009e565b5050506200087b565b600180546001600160a01b038381166001600160a01b0319831681179093556040519116919082907f8be0079c531659141344cd1fd0a4f28419497f9722a3daafe3b4186f6b6457e090600090a35050565b6001600160a01b038116620001af5760405162461bcd60e51b8152602060048201526012602482015271125b9d985b1a59081c1c9a58d9481999595960721b604482015260640162000092565b60006001600160a01b0316600683604051620001cc91906200064a565b908152604051908190036020019020546001600160a01b031614620002345760405162461bcd60e51b815260206004820152601460248201527f417373657420616c726561647920657869737473000000000000000000000000604482015260640162000092565b60008190506000816001600160a01b031663feaf968c6040518163ffffffff1660e01b815260040160a060405180830381865afa1580156200027a573d6000803e3d6000fd5b505050506040513d601f19601f82011682018060405250810190620002a0919062000685565b50505091505060008113620002ed5760405162461bcd60e51b8152602060048201526012602482015271125b9d985b1a59081c1c9a58d9481999595960721b604482015260640162000092565b826006856040516200030091906200064a565b90815260405190819003602001902080546001600160a01b03929092166001600160a01b0319909216919091179055600780546001810182556000919091527fa66cc928b5edb82af9bd49922954155ab7b0942694bea4ce44661d9a8736c688016200036d858262000769565b507f77780d19d6f850ec861d508f6035068d0b68fb9d334887c55393910e9b2951ea8484604051620003a192919062000835565b60405180910390a150505050565b634e487b7160e01b600052604160045260246000fd5b604051601f8201601f191681016001600160401b0381118282101715620003f057620003f0620003af565b604052919050565b60006001600160401b03821115620004145762000414620003af565b5060051b60200190565b60005b838110156200043b57818101518382015260200162000421565b50506000910152565b600082601f8301126200045657600080fd5b815160206200046f6200046983620003f8565b620003c5565b82815260059290921b840181019181810190868411156200048f57600080fd5b8286015b84811015620004c35780516001600160a01b0381168114620004b55760008081fd5b835291830191830162000493565b509695505050505050565b6000806040808486031215620004e357600080fd5b83516001600160401b0380821115620004fb57600080fd5b8186019150601f87818401126200051157600080fd5b82516020620005246200046983620003f8565b82815260059290921b8501810191818101908b8411156200054457600080fd5b8287015b84811015620005d657805187811115620005625760008081fd5b8801603f81018e13620005755760008081fd5b84810151888111156200058c576200058c620003af565b6200059f818901601f19168701620003c5565b8181528f8c838501011115620005b55760008081fd5b620005c6828883018e86016200041e565b8552505091830191830162000548565b50918a015191985090955050505080831115620005f257600080fd5b5050620006028582860162000444565b9150509250929050565b634e487b7160e01b600052603260045260246000fd5b6000600182016200064357634e487b7160e01b600052601160045260246000fd5b5060010190565b600082516200065e8184602087016200041e565b9190910192915050565b80516001600160501b03811681146200068057600080fd5b919050565b600080600080600060a086880312156200069e57600080fd5b620006a98662000668565b9450602086015193506040860151925060608601519150620006ce6080870162000668565b90509295509295909350565b600181811c90821680620006ef57607f821691505b6020821081036200071057634e487b7160e01b600052602260045260246000fd5b50919050565b601f8211156200076457600081815260208120601f850160051c810160208610156200073f5750805b601f850160051c820191505b8181101562000760578281556001016200074b565b5050505b505050565b81516001600160401b03811115620007855762000785620003af565b6200079d81620007968454620006da565b8462000716565b602080601f831160018114620007d55760008415620007bc5750858301515b600019600386901b1c1916600185901b17855562000760565b600085815260208120601f198616915b828110156200080657888601518255948401946001909101908401620007e5565b5085821015620008255787850151600019600388901b60f8161c191681555b5050505050600190811b01905550565b6040815260008351806040840152620008568160608501602088016200041e565b6001600160a01b0393909316602083015250601f91909101601f191601606001919050565b612a19806200088b6000396000f3fe6080604052600436106101095760003560e01c80639ce5738a11610095578063b6a6d17711610064578063b6a6d177146102e0578063e5406dbf146102f6578063f2fde38b14610318578063f32b5e7114610338578063fa73914c1461034b57600080fd5b80639ce5738a1461026d578063adc02a6414610289578063b1724b46146102a9578063b50584b3146102c057600080fd5b80637ceb96dc116100dc5780637ceb96dc146101785780637d3a6715146101b45780638da5cb5b146101e157806395beeae8146102135780639c061a9b1461023d57600080fd5b8063199edd7a1461010e57806334ca020514610123578063715018a614610143578063759af9ec14610158575b600080fd5b61012161011c36600461216a565b61036b565b005b34801561012f57600080fd5b5061012161013e3660046121b8565b6106cf565b34801561014f57600080fd5b506101216109c5565b34801561016457600080fd5b506101216101733660046121b8565b6109d9565b34801561018457600080fd5b5061019861019336600461220c565b610b80565b6040805192151583526020830191909152015b60405180910390f35b3480156101c057600080fd5b506101d46101cf3660046121b8565b610bf6565b6040516101ab91906122a1565b3480156101ed57600080fd5b506001546001600160a01b03165b6040516001600160a01b0390911681526020016101ab565b34801561021f57600080fd5b5061022f67016345785d8a000081565b6040519081526020016101ab565b34801561024957600080fd5b5061025d6102583660046121b8565b610dc6565b60405190151581526020016101ab565b34801561027957600080fd5b5061022f671bc16d674ec8000081565b34801561029557600080fd5b506101216102a436600461220c565b610f7c565b3480156102b557600080fd5b5061022f6203f48081565b3480156102cc57600080fd5b506101fb6102db3660046121b8565b610f8e565b3480156102ec57600080fd5b5061022f610e1081565b34801561030257600080fd5b5061030b610fbf565b6040516101ab919061237a565b34801561032457600080fd5b506101216103333660046123dc565b611098565b6101216103463660046123fe565b61110e565b34801561035757600080fd5b506101216103663660046121b8565b6116e7565b610373611962565b600060028360405161038591906124a0565b90815260405190819003602001902080549091506001600160a01b03166103e75760405162461bcd60e51b815260206004820152601160248201527010995d08191bd95cdb89dd08195e1a5cdd607a1b60448201526064015b60405180910390fd5b6008810154610100900460ff16156104385760405162461bcd60e51b815260206004820152601460248201527310995d08185b1c9958591e481c995cdbdb1d995960621b60448201526064016103de565b806003015442106104795760405162461bcd60e51b815260206004820152600b60248201526a10995d08195e1c1a5c995960aa1b60448201526064016103de565b806002015434146104c35760405162461bcd60e51b8152602060048201526014602482015273496e636f727265637420766f7465207374616b6560601b60448201526064016103de565b6003836040516104d391906124a0565b908152604080516020928190038301902033600090815292529020600101541561052f5760405162461bcd60e51b815260206004820152600d60248201526c105b1c9958591e481d9bdd1959609a1b60448201526064016103de565b604080516060810182528315158152346020820152600081830152905160039061055a9086906124a0565b908152604080519182900360209081019092203360009081529083528190208351815490151560ff199182161782559284015160018201559201516002909201805492151592909116919091179055811561060e576009810180549060006105c1836124d2565b91905055506004836040516105d691906124a0565b908152604051908190036020908101909120805460018101825560009182529190200180546001600160a01b03191633179055610669565b600a81018054906000610620836124d2565b919050555060058360405161063591906124a0565b908152604051908190036020908101909120805460018101825560009182529190200180546001600160a01b031916331790555b3481600b01600082825461067d91906124eb565b90915550506040517f8f939c0e8da82099bc9be68995da582362fa8d3032227846326c305b0f2d2e37906106b89085903390869034906124fe565b60405180910390a1506106cb6001600055565b5050565b6106d7611962565b60006002826040516106e991906124a0565b90815260405190819003602001902080549091506001600160a01b03166107465760405162461bcd60e51b815260206004820152601160248201527010995d08191bd95cdb89dd08195e1a5cdd607a1b60448201526064016103de565b6008810154610100900460ff16156107935760405162461bcd60e51b815260206004820152601060248201526f105b1c9958591e481c995cdbdb1d995960821b60448201526064016103de565b80600301544210156107d95760405162461bcd60e51b815260206004820152600f60248201526e139bdd08195e1c1a5c9959081e595d608a1b60448201526064016103de565b600481015460009060ff16156109405760006006836005016040516107fe91906125e3565b908152604051908190036020019020546001600160a01b03169050806108365760405162461bcd60e51b81526004016103de906125ef565b60008190506000816001600160a01b031663feaf968c6040518163ffffffff1660e01b815260040160a060405180830381865afa15801561087b573d6000803e3d6000fd5b505050506040513d601f19601f8201168201806040525081019061089f9190612632565b505050915050600081136108c55760405162461bcd60e51b81526004016103de90612682565b60006108d58660060154836119bb565b6007870154909150811080159061092157600687015460088801549084119060ff1680156109005750805b806109195750600888015460ff16158015610919575080155b965050610936565b61092a886119fd565b505050505050506109b8565b5050505050610965565b50600a81015460098201548181119190036109655761095e836119fd565b50506109b8565b60088201805461ff001916610100179055600b8201546040517f2dc1320867f6e4d8057e00924f443f3d43424ea27536ef46d3a89cc75c021421916109ad91869185916126ae565b60405180910390a150505b6109c26001600055565b50565b6109cd611d7a565b6109d76000611dd4565b565b6109e1611d7a565b60006001600160a01b03166006826040516109fc91906124a0565b908152604051908190036020019020546001600160a01b031603610a325760405162461bcd60e51b81526004016103de906125ef565b600681604051610a4291906124a0565b90815260405190819003602001902080546001600160a01b031916905560005b600754811015610b4557818051906020012060078281548110610a8757610a876126d3565b90600052602060002001604051610a9e91906125e3565b604051809103902003610b335760078054610abb906001906126e9565b81548110610acb57610acb6126d3565b9060005260206000200160078281548110610ae857610ae86126d3565b906000526020600020019081610afe919061274b565b506007805480610b1057610b1061282c565b600190038181906000526020600020016000610b2c9190612064565b9055610b45565b80610b3d816124d2565b915050610a62565b507f7704a686b2fb3541aea5ffdeb387f0119accdfafd1824299e97eb81dee7be83581604051610b759190612842565b60405180910390a150565b6000806000600385604051610b9591906124a0565b9081526040805191829003602090810183206001600160a01b0388166000908152908252829020606084018352805460ff90811615158086526001830154938601849052600290920154161515939092019290925293509150509250929050565b610c70604051806101a0016040528060006001600160a01b031681526020016000815260200160008152602001600081526020016000151581526020016060815260200160008152602001600081526020016000151581526020016000151581526020016000815260200160008152602001600081525090565b600282604051610c8091906124a0565b9081526040805191829003602090810183206101a08401835280546001600160a01b0316845260018101549184019190915260028101549183019190915260038101546060830152600481015460ff161515608083015260058101805460a084019190610cec90612536565b80601f0160208091040260200160405190810160405280929190818152602001828054610d1890612536565b8015610d655780601f10610d3a57610100808354040283529160200191610d65565b820191906000526020600020905b815481529060010190602001808311610d4857829003601f168201915b50505091835250506006820154602082015260078201546040820152600882015460ff808216151560608401526101009091041615156080820152600982015460a0820152600a82015460c0820152600b9091015460e09091015292915050565b600080600283604051610dd991906124a0565b908152604051908190036020019020600881015490915060ff61010090910416610e385760405162461bcd60e51b815260206004820152601060248201526f10995d081b9bdd081c995cdbdb1d995960821b60448201526064016103de565b600481015460ff1615610f6a576000600682600501604051610e5a91906125e3565b908152604051908190036020019020546001600160a01b0316905080610e925760405162461bcd60e51b81526004016103de906125ef565b60008190506000816001600160a01b031663feaf968c6040518163ffffffff1660e01b815260040160a060405180830381865afa158015610ed7573d6000803e3d6000fd5b505050506040513d601f19601f82011682018060405250810190610efb9190612632565b5050509150506000610f118560060154836119bb565b905084600701548110610f5d57600685015460088601549083119060ff168015610f385750805b80610f515750600886015460ff16158015610f51575080155b98975050505050505050565b5060009695505050505050565b600a8101546009909101541192915050565b610f84611d7a565b6106cb8282611e26565b6000600682604051610fa091906124a0565b908152604051908190036020019020546001600160a01b031692915050565b60606007805480602002602001604051908101604052809291908181526020016000905b8282101561108f57838290600052602060002001805461100290612536565b80601f016020809104026020016040519081016040528092919081815260200182805461102e90612536565b801561107b5780601f106110505761010080835404028352916020019161107b565b820191906000526020600020905b81548152906001019060200180831161105e57829003601f168201915b505050505081526020019060010190610fe3565b50505050905090565b6110a0611d7a565b6001600160a01b0381166111055760405162461bcd60e51b815260206004820152602660248201527f4f776e61626c653a206e6577206f776e657220697320746865207a65726f206160448201526564647265737360d01b60648201526084016103de565b6109c281611dd4565b611116611962565b671bc16d674ec8000034146111605760405162461bcd60e51b815260206004820152601060248201526f26bab9ba1039ba30b5b290191026a7a760811b60448201526064016103de565b67016345785d8a00008610156111ad5760405162461bcd60e51b8152602060048201526012602482015271566f7465207374616b6520746f6f206c6f7760701b60448201526064016103de565b610e1085101580156111c257506203f4808511155b6112015760405162461bcd60e51b815260206004820152601060248201526f24b73b30b634b210323ab930ba34b7b760811b60448201526064016103de565b60006001600160a01b031660028860405161121c91906124a0565b908152604051908190036020019020546001600160a01b0316146112775760405162461bcd60e51b815260206004820152601260248201527142657420616c72656164792065786973747360701b60448201526064016103de565b831561152b57600060068460405161128f91906124a0565b908152604051908190036020019020546001600160a01b03169050806112eb5760405162461bcd60e51b8152602060048201526011602482015270155b9cdd5c1c1bdc9d195908185cdcd95d607a1b60448201526064016103de565b6000831180156112fc575060148311155b61133c5760405162461bcd60e51b8152602060048201526011602482015270125b9d985b1a59081d1a1c995cda1bdb19607a1b60448201526064016103de565b60008190506000816001600160a01b031663feaf968c6040518163ffffffff1660e01b815260040160a060405180830381865afa158015611381573d6000803e3d6000fd5b505050506040513d601f19601f820116820180604052508101906113a59190612632565b505050915050600081136113cb5760405162461bcd60e51b81526004016103de90612682565b604080516101a0810182523381523460208201529081018a9052606081016113f38a426124eb565b815260200160011515815260200187815260200182815260200186815260200185151581526020016000151581526020016000815260200160008152602001600081525060028b60405161144791906124a0565b9081526040805160209281900383019020835181546001600160a01b0319166001600160a01b03909116178155918301516001830155820151600282015560608201516003820155608082015160048201805460ff191691151591909117905560a082015160058201906114bb9082612855565b5060c0820151600682015560e082015160078201556101008083015160088301805461012086015161ffff1990911692151561ff001916929092179115159092021790556101408201516009820155610160820151600a82015561018090910151600b9091015550611695915050565b604080516101a0810182523381523460208201529081018790526060810161155387426124eb565b81526020016000151581526020016040518060200160405280600081525081526020016000815260200160008152602001600015158152602001600015158152602001600081526020016000815260200160008152506002886040516115b991906124a0565b9081526040805160209281900383019020835181546001600160a01b0319166001600160a01b03909116178155918301516001830155820151600282015560608201516003820155608082015160048201805460ff191691151591909117905560a0820151600582019061162d9082612855565b5060c0820151600682015560e082015160078201556101008083015160088301805461012086015161ffff1990911692151561ff001916929092179115159092021790556101408201516009820155610160820151600a82015561018090910151600b909101555b7f21e684be21319ba5ef007edca3bbc60e1ed7354bc368aa05dcd462f779ffef7587303334876040516116cc95949392919061290f565b60405180910390a16116de6001600055565b50505050505050565b6116ef611962565b600060028260405161170191906124a0565b908152604051908190036020019020600881015490915060ff610100909104166117605760405162461bcd60e51b815260206004820152601060248201526f10995d081b9bdd081c995cdbdb1d995960821b60448201526064016103de565b600060038360405161177291906124a0565b90815260408051602092819003830190203360009081529252902060018101549091506117d15760405162461bcd60e51b815260206004820152600d60248201526c139bc81d9bdd1948199bdd5b99609a1b60448201526064016103de565b600281015460ff16156118185760405162461bcd60e51b815260206004820152600f60248201526e105b1c9958591e4818db185a5b5959608a1b60448201526064016103de565b600061182384610dc6565b825490915060ff1615158115151461186b5760405162461bcd60e51b815260206004820152600b60248201526a2234b2103737ba103bb4b760a91b60448201526064016103de565b60028201805460ff191660011790556000611886858361200f565b604051909150600090339083908381818185875af1925050503d80600081146118cb576040519150601f19603f3d011682016040523d82523d6000602084013e6118d0565b606091505b50509050806119185760405162461bcd60e51b81526020600482015260146024820152734661696c656420746f2073656e64207072697a6560601b60448201526064016103de565b7f03fcbbdf8f723f64756f2a8bd13039d673bfda48e348d21bc292b1a5a6b1746e86338460405161194b93929190612952565b60405180910390a150505050506109c26001600055565b6002600054036119b45760405162461bcd60e51b815260206004820152601f60248201527f5265656e7472616e637947756172643a207265656e7472616e742063616c6c0060448201526064016103de565b6002600055565b6000828211156119ec57826119d081846126e9565b6119db906064612980565b6119e59190612997565b90506119f7565b826119d083826126e9565b92915050565b6000600282604051611a0f91906124a0565b9081526020016040518091039020905060005b600483604051611a3291906124a0565b90815260405190819003602001902054811015611bc2576000600484604051611a5b91906124a0565b90815260200160405180910390208281548110611a7a57611a7a6126d3565b6000918252602090912001546040516001600160a01b039091169150600390611aa49086906124a0565b90815260408051602092819003830190206001600160a01b0384166000908152925290206002015460ff16611baf576001600385604051611ae591906124a0565b90815260408051602092819003830181206001600160a01b0386166000818152919094529182206002908101805460ff19169515159590951790945592860154909260006040518083038185875af1925050503d8060008114611b64576040519150601f19603f3d011682016040523d82523d6000602084013e611b69565b606091505b5050905080611bad5760405162461bcd60e51b815260206004820152601060248201526f11985a5b1959081d1bc81c99599d5b9960821b60448201526064016103de565b505b5080611bba816124d2565b915050611a22565b5060005b600583604051611bd691906124a0565b90815260405190819003602001902054811015611d66576000600584604051611bff91906124a0565b90815260200160405180910390208281548110611c1e57611c1e6126d3565b6000918252602090912001546040516001600160a01b039091169150600390611c489086906124a0565b90815260408051602092819003830190206001600160a01b0384166000908152925290206002015460ff16611d53576001600385604051611c8991906124a0565b90815260408051602092819003830181206001600160a01b0386166000818152919094529182206002908101805460ff19169515159590951790945592860154909260006040518083038185875af1925050503d8060008114611d08576040519150601f19603f3d011682016040523d82523d6000602084013e611d0d565b606091505b5050905080611d515760405162461bcd60e51b815260206004820152601060248201526f11985a5b1959081d1bc81c99599d5b9960821b60448201526064016103de565b505b5080611d5e816124d2565b915050611bc6565b50600801805461ff00191661010017905550565b6001546001600160a01b031633146109d75760405162461bcd60e51b815260206004820181905260248201527f4f776e61626c653a2063616c6c6572206973206e6f7420746865206f776e657260448201526064016103de565b600180546001600160a01b038381166001600160a01b0319831681179093556040519116919082907f8be0079c531659141344cd1fd0a4f28419497f9722a3daafe3b4186f6b6457e090600090a35050565b6001600160a01b038116611e4c5760405162461bcd60e51b81526004016103de90612682565b60006001600160a01b0316600683604051611e6791906124a0565b908152604051908190036020019020546001600160a01b031614611ec45760405162461bcd60e51b8152602060048201526014602482015273417373657420616c72656164792065786973747360601b60448201526064016103de565b60008190506000816001600160a01b031663feaf968c6040518163ffffffff1660e01b815260040160a060405180830381865afa158015611f09573d6000803e3d6000fd5b505050506040513d601f19601f82011682018060405250810190611f2d9190612632565b50505091505060008113611f535760405162461bcd60e51b81526004016103de90612682565b82600685604051611f6491906124a0565b90815260405190819003602001902080546001600160a01b03929092166001600160a01b0319909216919091179055600780546001810182556000919091527fa66cc928b5edb82af9bd49922954155ab7b0942694bea4ce44661d9a8736c68801611fcf8582612855565b507f77780d19d6f850ec861d508f6035068d0b68fb9d334887c55393910e9b2951ea84846040516120019291906129b9565b60405180910390a150505050565b60008060028460405161202291906124a0565b908152602001604051809103902090506000836120435781600a0154612049565b81600901545b90508082600b015461205b9190612997565b95945050505050565b50805461207090612536565b6000825580601f10612080575050565b601f0160209004906000526020600020908101906109c291905b808211156120ae576000815560010161209a565b5090565b634e487b7160e01b600052604160045260246000fd5b600082601f8301126120d957600080fd5b813567ffffffffffffffff808211156120f4576120f46120b2565b604051601f8301601f19908116603f0116810190828211818310171561211c5761211c6120b2565b8160405283815286602085880101111561213557600080fd5b836020870160208301376000602085830101528094505050505092915050565b8035801515811461216557600080fd5b919050565b6000806040838503121561217d57600080fd5b823567ffffffffffffffff81111561219457600080fd5b6121a0858286016120c8565b9250506121af60208401612155565b90509250929050565b6000602082840312156121ca57600080fd5b813567ffffffffffffffff8111156121e157600080fd5b6121ed848285016120c8565b949350505050565b80356001600160a01b038116811461216557600080fd5b6000806040838503121561221f57600080fd5b823567ffffffffffffffff81111561223657600080fd5b612242858286016120c8565b9250506121af602084016121f5565b60005b8381101561226c578181015183820152602001612254565b50506000910152565b6000815180845261228d816020860160208601612251565b601f01601f19169290920160200192915050565b602081526122bb6020820183516001600160a01b03169052565b602082015160408201526040820151606082015260608201516080820152600060808301516122ee60a084018215159052565b5060a08301516101a08060c085015261230b6101c0850183612275565b915060c085015160e085015260e085015161010081818701528087015191505061012061233b8187018315159052565b86015190506101406123508682018315159052565b86015161016086810191909152860151610180808701919091529095015193019290925250919050565b6000602080830181845280855180835260408601915060408160051b870101925083870160005b828110156123cf57603f198886030184526123bd858351612275565b945092850192908501906001016123a1565b5092979650505050505050565b6000602082840312156123ee57600080fd5b6123f7826121f5565b9392505050565b600080600080600080600060e0888a03121561241957600080fd5b873567ffffffffffffffff8082111561243157600080fd5b61243d8b838c016120c8565b985060208a0135975060408a0135965061245960608b01612155565b955060808a013591508082111561246f57600080fd5b5061247c8a828b016120c8565b93505060a0880135915061249260c08901612155565b905092959891949750929550565b600082516124b2818460208701612251565b9190910192915050565b634e487b7160e01b600052601160045260246000fd5b6000600182016124e4576124e46124bc565b5060010190565b808201808211156119f7576119f76124bc565b6080815260006125116080830187612275565b6001600160a01b03959095166020830152509115156040830152606090910152919050565b600181811c9082168061254a57607f821691505b60208210810361256a57634e487b7160e01b600052602260045260246000fd5b50919050565b6000815461257d81612536565b6001828116801561259557600181146125aa576125d9565b60ff19841687528215158302870194506125d9565b8560005260208060002060005b858110156125d05781548a8201529084019082016125b7565b50505082870194505b5050505092915050565b60006123f78284612570565b6020808252600f908201526e105cdcd95d081b9bdd08199bdd5b99608a1b604082015260600190565b805169ffffffffffffffffffff8116811461216557600080fd5b600080600080600060a0868803121561264a57600080fd5b61265386612618565b945060208601519350604086015192506060860151915061267660808701612618565b90509295509295909350565b602080825260129082015271125b9d985b1a59081c1c9a58d9481999595960721b604082015260600190565b6060815260006126c16060830186612275565b93151560208301525060400152919050565b634e487b7160e01b600052603260045260246000fd5b818103818111156119f7576119f76124bc565b601f82111561274657600081815260208120601f850160051c810160208610156127235750805b601f850160051c820191505b818110156127425782815560010161272f565b5050505b505050565b818103612756575050565b6127608254612536565b67ffffffffffffffff811115612778576127786120b2565b61278c816127868454612536565b846126fc565b6000601f8211600181146127c057600083156127a85750848201545b600019600385901b1c1916600184901b178455612825565b600085815260209020601f19841690600086815260209020845b838110156127fa57828601548255600195860195909101906020016127da565b50858310156128185781850154600019600388901b60f8161c191681555b50505060018360011b0184555b5050505050565b634e487b7160e01b600052603160045260246000fd5b6020815260006123f76020830184612275565b815167ffffffffffffffff81111561286f5761286f6120b2565b61287d816127868454612536565b602080601f8311600181146128b2576000841561289a5750858301515b600019600386901b1c1916600185901b178555612742565b600085815260208120601f198616915b828110156128e1578886015182559484019460019091019084016128c2565b50858210156128ff5787850151600019600388901b60f8161c191681555b5050505050600190811b01905550565b60a08152600061292260a0830188612275565b6001600160a01b03878116602085015286166040840152606083018590528281036080840152610f518185612275565b6060815260006129656060830186612275565b6001600160a01b039490941660208301525060400152919050565b80820281158282048414176119f7576119f76124bc565b6000826129b457634e487b7160e01b600052601260045260246000fd5b500490565b6040815260006129cc6040830185612275565b905060018060a01b0383166020830152939250505056fea26469706673582212206588b33890846adc71670f6e05b38b583240195bad06eb4d1765d970a35b114a64736f6c63430008130033",
  "linkReferences": {},
  "deployedLinkReferences": {}
}