{
  "_format": "hh-sol-artifact-1",
  "contractName": "Celocaster",
  "sourceName": "contracts/Celocaster.sol",
  "abi": [
    {
      "inputs": [
        {
          "internalType": "string[]",
          "name": "assets",
          "type": "string[]"
        },
        {
          "internalType": "address[]",
          "name": "priceFeeds",
          "type": "address[]"
        }
      ],
      "stateMutability": "nonpayable",
      "type": "constructor"
    },
    {
      "anonymous": false,
      "inputs": [
        {
          "indexed": false,
          "internalType": "string",
          "name": "symbol",
          "type": "string"
        },
        {
          "indexed": false,
          "internalType": "address",
          "name": "priceFeed",
          "type": "address"
        }
      ],
      "name": "AssetAdded",
      "type": "event"
    },
    {
      "anonymous": false,
      "inputs": [
        {
          "indexed": false,
          "internalType": "string",
          "name": "symbol",
          "type": "string"
        }
      ],
      "name": "AssetRemoved",
      "type": "event"
    },
    {
      "anonymous": false,
      "inputs": [
        {
          "indexed": false,
          "internalType": "string",
          "name": "betId",
          "type": "string"
        },
        {
          "indexed": false,
          "internalType": "address",
          "name": "betContract",
          "type": "address"
        },
        {
          "indexed": false,
          "internalType": "address",
          "name": "creator",
          "type": "address"
        },
        {
          "indexed": false,
          "internalType": "uint256",
          "name": "stakeAmount",
          "type": "uint256"
        },
        {
          "indexed": false,
          "internalType": "string",
          "name": "asset",
          "type": "string"
        }
      ],
      "name": "BetCreated",
      "type": "event"
    },
    {
      "anonymous": false,
      "inputs": [
        {
          "indexed": false,
          "internalType": "string",
          "name": "betId",
          "type": "string"
        },
        {
          "indexed": false,
          "internalType": "bool",
          "name": "yayWon",
          "type": "bool"
        },
        {
          "indexed": false,
          "internalType": "uint256",
          "name": "totalPrize",
          "type": "uint256"
        }
      ],
      "name": "BetResolved",
      "type": "event"
    },
    {
      "anonymous": false,
      "inputs": [
        {
          "indexed": true,
          "internalType": "address",
          "name": "previousOwner",
          "type": "address"
        },
        {
          "indexed": true,
          "internalType": "address",
          "name": "newOwner",
          "type": "address"
        }
      ],
      "name": "OwnershipTransferred",
      "type": "event"
    },
    {
      "anonymous": false,
      "inputs": [
        {
          "indexed": false,
          "internalType": "string",
          "name": "betId",
          "type": "string"
        },
        {
          "indexed": false,
          "internalType": "address",
          "name": "winner",
          "type": "address"
        },
        {
          "indexed": false,
          "internalType": "uint256",
          "name": "amount",
          "type": "uint256"
        }
      ],
      "name": "PrizeDistributed",
      "type": "event"
    },
    {
      "anonymous": false,
      "inputs": [
        {
          "indexed": false,
          "internalType": "string",
          "name": "betId",
          "type": "string"
        },
        {
          "indexed": false,
          "internalType": "address",
          "name": "voter",
          "type": "address"
        },
        {
          "indexed": false,
          "internalType": "bool",
          "name": "isYay",
          "type": "bool"
        },
        {
          "indexed": false,
          "internalType": "uint256",
          "name": "amount",
          "type": "uint256"
        }
      ],
      "name": "VoteCast",
      "type": "event"
    },
    {
      "inputs": [],
      "name": "MAX_DURATION",
      "outputs": [
        {
          "internalType": "uint256",
          "name": "",
          "type": "uint256"
        }
      ],
      "stateMutability": "view",
      "type": "function"
    },
    {
      "inputs": [],
      "name": "MIN_DURATION",
      "outputs": [
        {
          "internalType": "uint256",
          "name": "",
          "type": "uint256"
        }
      ],
      "stateMutability": "view",
      "type": "function"
    },
    {
      "inputs": [],
      "name": "MIN_VOTE_STAKE",
      "outputs": [
        {
          "internalType": "uint256",
          "name": "",
          "type": "uint256"
        }
      ],
      "stateMutability": "view",
      "type": "function"
    },
    {
      "inputs": [
        {
          "internalType": "string",
          "name": "symbol",
          "type": "string"
        },
        {
          "internalType": "address",
          "name": "priceFeed",
          "type": "address"
        }
      ],
      "name": "addAsset",
      "outputs": [],
      "stateMutability": "nonpayable",
      "type": "function"
    },
    {
      "inputs": [
        {
          "internalType": "string",
          "name": "betId",
          "type": "string"
        },
        {
          "internalType": "bool",
          "name": "isYay",
          "type": "bool"
        }
      ],
      "name": "castVote",
      "outputs": [],
      "stateMutability": "payable",
      "type": "function"
    },
    {
      "inputs": [
        {
          "internalType": "string",
          "name": "betId",
          "type": "string"
        }
      ],
      "name": "claimPrize",
      "outputs": [],
      "stateMutability": "nonpayable",
      "type": "function"
    },
    {
      "inputs": [
        {
          "internalType": "string",
          "name": "betId",
          "type": "string"
        },
        {
          "internalType": "uint256",
          "name": "voteStake",
          "type": "uint256"
        },
        {
          "internalType": "uint256",
          "name": "duration",
          "type": "uint256"
        },
        {
          "internalType": "bool",
          "name": "isVerified",
          "type": "bool"
        },
        {
          "internalType": "string",
          "name": "asset",
          "type": "string"
        },
        {
          "internalType": "uint256",
          "name": "priceThreshold",
          "type": "uint256"
        },
        {
          "internalType": "bool",
          "name": "isPump",
          "type": "bool"
        }
      ],
      "name": "createBet",
      "outputs": [],
      "stateMutability": "payable",
      "type": "function"
    },
    {
      "inputs": [
        {
          "internalType": "string",
          "name": "betId",
          "type": "string"
        }
      ],
      "name": "getBetInfo",
      "outputs": [
        {
          "components": [
            {
              "internalType": "address",
              "name": "creator",
              "type": "address"
            },
            {
              "internalType": "uint256",
              "name": "platformStake",
              "type": "uint256"
            },
            {
              "internalType": "uint256",
              "name": "voteStake",
              "type": "uint256"
            },
            {
              "internalType": "uint256",
              "name": "expiryTime",
              "type": "uint256"
            },
            {
              "internalType": "bool",
              "name": "isVerified",
              "type": "bool"
            },
            {
              "internalType": "string",
              "name": "asset",
              "type": "string"
            },
            {
              "internalType": "uint256",
              "name": "startPrice",
              "type": "uint256"
            },
            {
              "internalType": "uint256",
              "name": "priceThreshold",
              "type": "uint256"
            },
            {
              "internalType": "bool",
              "name": "isPump",
              "type": "bool"
            },
            {
              "internalType": "bool",
              "name": "isResolved",
              "type": "bool"
            },
            {
              "internalType": "uint256",
              "name": "totalYayVotes",
              "type": "uint256"
            },
            {
              "internalType": "uint256",
              "name": "totalNayVotes",
              "type": "uint256"
            },
            {
              "internalType": "uint256",
              "name": "prizePool",
              "type": "uint256"
            },
            {
              "internalType": "bool",
              "name": "yayWon",
              "type": "bool"
            },
            {
              "internalType": "uint256",
              "name": "endPrice",
              "type": "uint256"
            },
            {
              "internalType": "bool",
              "name": "thresholdMet",
              "type": "bool"
            }
          ],
          "internalType": "struct ICelocaster.BetInfo",
          "name": "",
          "type": "tuple"
        }
      ],
      "stateMutability": "view",
      "type": "function"
    },
    {
      "inputs": [
        {
          "internalType": "string",
          "name": "asset",
          "type": "string"
        }
      ],
      "name": "getPriceFeed",
      "outputs": [
        {
          "internalType": "address",
          "name": "",
          "type": "address"
        }
      ],
      "stateMutability": "view",
      "type": "function"
    },
    {
      "inputs": [],
      "name": "getSupportedAssets",
      "outputs": [
        {
          "internalType": "string[]",
          "name": "",
          "type": "string[]"
        }
      ],
      "stateMutability": "view",
      "type": "function"
    },
    {
      "inputs": [
        {
          "internalType": "string",
          "name": "betId",
          "type": "string"
        },
        {
          "internalType": "address",
          "name": "user",
          "type": "address"
        }
      ],
      "name": "getUserVote",
      "outputs": [
        {
          "internalType": "bool",
          "name": "isYay",
          "type": "bool"
        },
        {
          "internalType": "uint256",
          "name": "amount",
          "type": "uint256"
        }
      ],
      "stateMutability": "view",
      "type": "function"
    },
    {
      "inputs": [
        {
          "internalType": "string",
          "name": "betId",
          "type": "string"
        },
        {
          "internalType": "address",
          "name": "user",
          "type": "address"
        }
      ],
      "name": "getUserVoteInfo",
      "outputs": [
        {
          "internalType": "bool",
          "name": "isYay",
          "type": "bool"
        },
        {
          "internalType": "uint256",
          "name": "amount",
          "type": "uint256"
        },
        {
          "internalType": "bool",
          "name": "claimed",
          "type": "bool"
        }
      ],
      "stateMutability": "view",
      "type": "function"
    },
    {
      "inputs": [
        {
          "internalType": "string",
          "name": "betId",
          "type": "string"
        }
      ],
      "name": "getWinningVote",
      "outputs": [
        {
          "internalType": "bool",
          "name": "yayWon",
          "type": "bool"
        }
      ],
      "stateMutability": "view",
      "type": "function"
    },
    {
      "inputs": [],
      "name": "owner",
      "outputs": [
        {
          "internalType": "address",
          "name": "",
          "type": "address"
        }
      ],
      "stateMutability": "view",
      "type": "function"
    },
    {
      "inputs": [],
      "name": "platformStake",
      "outputs": [
        {
          "internalType": "uint256",
          "name": "",
          "type": "uint256"
        }
      ],
      "stateMutability": "view",
      "type": "function"
    },
    {
      "inputs": [
        {
          "internalType": "string",
          "name": "symbol",
          "type": "string"
        }
      ],
      "name": "removeAsset",
      "outputs": [],
      "stateMutability": "nonpayable",
      "type": "function"
    },
    {
      "inputs": [],
      "name": "renounceOwnership",
      "outputs": [],
      "stateMutability": "nonpayable",
      "type": "function"
    },
    {
      "inputs": [
        {
          "internalType": "string",
          "name": "betId",
          "type": "string"
        }
      ],
      "name": "resolveBet",
      "outputs": [],
      "stateMutability": "nonpayable",
      "type": "function"
    },
    {
      "inputs": [
        {
          "internalType": "uint256",
          "name": "newStake",
          "type": "uint256"
        }
      ],
      "name": "setPlatformStake",
      "outputs": [],
      "stateMutability": "nonpayable",
      "type": "function"
    },
    {
      "inputs": [
        {
          "internalType": "address",
          "name": "newOwner",
          "type": "address"
        }
      ],
      "name": "transferOwnership",
      "outputs": [],
      "stateMutability": "nonpayable",
      "type": "function"
    },
    {
      "inputs": [],
      "name": "withdraw",
      "outputs": [],
      "stateMutability": "nonpayable",
      "type": "function"
    }
  ],
  "bytecode": "0x60806040526729a2241af62c00006002553480156200001d57600080fd5b506040516200365c3803806200365c8339810160408190526200004091620004da565b600160005562000050336200011c565b8051825114620000a75760405162461bcd60e51b815260206004820152601660248201527f417272617973206c656e677468206d69736d617463680000000000000000000060448201526064015b60405180910390fd5b60005b82518110156200011357620000fe838281518110620000cd57620000cd62000618565b6020026020010151838381518110620000ea57620000ea62000618565b60200260200101516200016e60201b60201c565b806200010a816200062e565b915050620000aa565b50505062000887565b600180546001600160a01b038381166001600160a01b0319831681179093556040519116919082907f8be0079c531659141344cd1fd0a4f28419497f9722a3daafe3b4186f6b6457e090600090a35050565b6001600160a01b038116620001bb5760405162461bcd60e51b8152602060048201526012602482015271125b9d985b1a59081c1c9a58d9481999595960721b60448201526064016200009e565b60006001600160a01b0316600783604051620001d8919062000656565b908152604051908190036020019020546001600160a01b031614620002405760405162461bcd60e51b815260206004820152601460248201527f417373657420616c72656164792065786973747300000000000000000000000060448201526064016200009e565b60008190506000816001600160a01b031663feaf968c6040518163ffffffff1660e01b815260040160a060405180830381865afa15801562000286573d6000803e3d6000fd5b505050506040513d601f19601f82011682018060405250810190620002ac919062000691565b50505091505060008113620002f95760405162461bcd60e51b8152602060048201526012602482015271125b9d985b1a59081c1c9a58d9481999595960721b60448201526064016200009e565b826007856040516200030c919062000656565b90815260405190819003602001902080546001600160a01b03929092166001600160a01b0319909216919091179055600880546001810182556000919091527ff3f7a9fe364faab93b216da50a3214154f22a0a2b415b23a84c8169e8b636ee30162000379858262000775565b507f77780d19d6f850ec861d508f6035068d0b68fb9d334887c55393910e9b2951ea8484604051620003ad92919062000841565b60405180910390a150505050565b634e487b7160e01b600052604160045260246000fd5b604051601f8201601f191681016001600160401b0381118282101715620003fc57620003fc620003bb565b604052919050565b60006001600160401b03821115620004205762000420620003bb565b5060051b60200190565b60005b83811015620004475781810151838201526020016200042d565b50506000910152565b600082601f8301126200046257600080fd5b815160206200047b620004758362000404565b620003d1565b82815260059290921b840181019181810190868411156200049b57600080fd5b8286015b84811015620004cf5780516001600160a01b0381168114620004c15760008081fd5b83529183019183016200049f565b509695505050505050565b6000806040808486031215620004ef57600080fd5b83516001600160401b03808211156200050757600080fd5b8186019150601f87818401126200051d57600080fd5b8251602062000530620004758362000404565b82815260059290921b8501810191818101908b8411156200055057600080fd5b8287015b84811015620005e2578051878111156200056e5760008081fd5b8801603f81018e13620005815760008081fd5b8481015188811115620005985762000598620003bb565b620005ab818901601f19168701620003d1565b8181528f8c838501011115620005c15760008081fd5b620005d2828883018e86016200042a565b8552505091830191830162000554565b50918a015191985090955050505080831115620005fe57600080fd5b50506200060e8582860162000450565b9150509250929050565b634e487b7160e01b600052603260045260246000fd5b6000600182016200064f57634e487b7160e01b600052601160045260246000fd5b5060010190565b600082516200066a8184602087016200042a565b9190910192915050565b80516001600160501b03811681146200068c57600080fd5b919050565b600080600080600060a08688031215620006aa57600080fd5b620006b58662000674565b9450602086015193506040860151925060608601519150620006da6080870162000674565b90509295509295909350565b600181811c90821680620006fb57607f821691505b6020821081036200071c57634e487b7160e01b600052602260045260246000fd5b50919050565b601f8211156200077057600081815260208120601f850160051c810160208610156200074b5750805b601f850160051c820191505b818110156200076c5782815560010162000757565b5050505b505050565b81516001600160401b03811115620007915762000791620003bb565b620007a981620007a28454620006e6565b8462000722565b602080601f831160018114620007e15760008415620007c85750858301515b600019600386901b1c1916600185901b1785556200076c565b600085815260208120601f198616915b828110156200081257888601518255948401946001909101908401620007f1565b5085821015620008315787850151600019600388901b60f8161c191681555b5050505050600190811b01905550565b6040815260008351806040840152620008628160608501602088016200042a565b6001600160a01b0393909316602083015250601f91909101601f191601606001919050565b612dc580620008976000396000f3fe60806040526004361061012a5760003560e01c806395beeae8116100ab578063b6a6d1771161006f578063b6a6d17714610359578063e5406dbf1461036f578063e778fda114610391578063f2fde38b146103a7578063f32b5e71146103c7578063fa73914c146103da57600080fd5b806395beeae8146102a85780639c061a9b146102d2578063adc02a6414610302578063b1724b4614610322578063b50584b31461033957600080fd5b8063715018a6116100f2578063715018a6146101dd578063759af9ec146101f25780637ceb96dc146102125780637d3a6715146102495780638da5cb5b1461027657600080fd5b806306caf8901461012f578063199edd7a1461015157806334ca0205146101645780633ccfd60b146101845780634458c1eb14610199575b600080fd5b34801561013b57600080fd5b5061014f61014a366004612414565b6103fa565b005b61014f61015f3660046124e5565b61046a565b34801561017057600080fd5b5061014f61017f366004612533565b6107c9565b34801561019057600080fd5b5061014f610ad9565b3480156101a557600080fd5b506101b96101b4366004612587565b610bcc565b60408051931515845260208401929092521515908201526060015b60405180910390f35b3480156101e957600080fd5b5061014f610c2a565b3480156101fe57600080fd5b5061014f61020d366004612533565b610c3e565b34801561021e57600080fd5b5061023261022d366004612587565b610de5565b6040805192151583526020830191909152016101d4565b34801561025557600080fd5b50610269610264366004612533565b610e5b565b6040516101d4919061261c565b34801561028257600080fd5b506001546001600160a01b03165b6040516001600160a01b0390911681526020016101d4565b3480156102b457600080fd5b506102c467016345785d8a000081565b6040519081526020016101d4565b3480156102de57600080fd5b506102f26102ed366004612533565b611071565b60405190151581526020016101d4565b34801561030e57600080fd5b5061014f61031d366004612587565b611227565b34801561032e57600080fd5b506102c462278d0081565b34801561034557600080fd5b50610290610354366004612533565b611239565b34801561036557600080fd5b506102c461012c81565b34801561037b57600080fd5b5061038461126a565b6040516101d49190612726565b34801561039d57600080fd5b506102c460025481565b3480156103b357600080fd5b5061014f6103c2366004612788565b611343565b61014f6103d53660046127aa565b611354565b3480156103e657600080fd5b5061014f6103f5366004612533565b6119d0565b610402611c4e565b600081116104655760405162461bcd60e51b815260206004820152602560248201527f506c6174666f726d207374616b65206d75737420626520677265617465722074604482015264068616e20360dc1b60648201526084015b60405180910390fd5b600255565b610472611ca8565b6000600383604051610484919061284c565b90815260405190819003602001902080549091506001600160a01b03166104e15760405162461bcd60e51b815260206004820152601160248201527010995d08191bd95cdb89dd08195e1a5cdd607a1b604482015260640161045c565b6008810154610100900460ff16156105325760405162461bcd60e51b815260206004820152601460248201527310995d08185b1c9958591e481c995cdbdb1d995960621b604482015260640161045c565b806003015442106105735760405162461bcd60e51b815260206004820152600b60248201526a10995d08195e1c1a5c995960aa1b604482015260640161045c565b806002015434146105bd5760405162461bcd60e51b8152602060048201526014602482015273496e636f727265637420766f7465207374616b6560601b604482015260640161045c565b6004836040516105cd919061284c565b90815260408051602092819003830190203360009081529252902060010154156106295760405162461bcd60e51b815260206004820152600d60248201526c105b1c9958591e481d9bdd1959609a1b604482015260640161045c565b604080516060810182528315158152346020820152600081830152905160049061065490869061284c565b908152604080519182900360209081019092203360009081529083528190208351815490151560ff1991821617825592840151600182015592015160029092018054921515929091169190911790558115610708576009810180549060006106bb8361287e565b91905055506005836040516106d0919061284c565b908152604051908190036020908101909120805460018101825560009182529190200180546001600160a01b03191633179055610763565b600a8101805490600061071a8361287e565b919050555060068360405161072f919061284c565b908152604051908190036020908101909120805460018101825560009182529190200180546001600160a01b031916331790555b3481600b0160008282546107779190612897565b90915550506040517f8f939c0e8da82099bc9be68995da582362fa8d3032227846326c305b0f2d2e37906107b29085903390869034906128aa565b60405180910390a1506107c56001600055565b5050565b6107d1611ca8565b60006003826040516107e3919061284c565b90815260405190819003602001902080549091506001600160a01b03166108405760405162461bcd60e51b815260206004820152601160248201527010995d08191bd95cdb89dd08195e1a5cdd607a1b604482015260640161045c565b6008810154610100900460ff161561088d5760405162461bcd60e51b815260206004820152601060248201526f105b1c9958591e481c995cdbdb1d995960821b604482015260640161045c565b80600301544210156108d35760405162461bcd60e51b815260206004820152600f60248201526e139bdd08195e1c1a5c9959081e595d608a1b604482015260640161045c565b600481015460009060ff1615610a425760006007836005016040516108f8919061298f565b908152604051908190036020019020546001600160a01b03169050806109305760405162461bcd60e51b815260040161045c9061299b565b60008190506000816001600160a01b031663feaf968c6040518163ffffffff1660e01b815260040160a060405180830381865afa158015610975573d6000803e3d6000fd5b505050506040513d601f19601f8201168201806040525081019061099991906129de565b505050915050600081136109bf5760405162461bcd60e51b815260040161045c90612a2e565b60006109cf866006015483611d01565b6007870154600d8801849055600e8801805460ff1916918310801592831790915591925090610a3357600687015460088801549084119060ff168015610a125750805b80610a2b5750600888015460ff16158015610a2b575080155b965050610a38565b600095505b5050505050610a67565b50600a8101546009820154818111919003610a6757610a6083611d43565b5050610acc565b600c8201805482151560ff1990911617905560088201805461ff001916610100179055600b8201546040517f2dc1320867f6e4d8057e00924f443f3d43424ea27536ef46d3a89cc75c02142191610ac19186918591612a5a565b60405180910390a150505b610ad66001600055565b50565b610ae1611c4e565b4780610b265760405162461bcd60e51b81526020600482015260146024820152734e6f2066756e647320746f20776974686472617760601b604482015260640161045c565b6000610b3a6001546001600160a01b031690565b6001600160a01b03168260405160006040518083038185875af1925050503d8060008114610b84576040519150601f19603f3d011682016040523d82523d6000602084013e610b89565b606091505b50509050806107c55760405162461bcd60e51b815260206004820152600f60248201526e15da5d1a191c985dc819985a5b1959608a1b604482015260640161045c565b600080600080600486604051610be2919061284c565b908152604080519182900360209081019092206001600160a01b0388166000908152925290208054600182015460029092015460ff9182169650919450169150509250925092565b610c32611c4e565b610c3c60006120c0565b565b610c46611c4e565b60006001600160a01b0316600782604051610c61919061284c565b908152604051908190036020019020546001600160a01b031603610c975760405162461bcd60e51b815260040161045c9061299b565b600781604051610ca7919061284c565b90815260405190819003602001902080546001600160a01b031916905560005b600854811015610daa57818051906020012060088281548110610cec57610cec612a7f565b90600052602060002001604051610d03919061298f565b604051809103902003610d985760088054610d2090600190612a95565b81548110610d3057610d30612a7f565b9060005260206000200160088281548110610d4d57610d4d612a7f565b906000526020600020019081610d639190612af7565b506008805480610d7557610d75612bd8565b600190038181906000526020600020016000610d9191906123c6565b9055610daa565b80610da28161287e565b915050610cc7565b507f7704a686b2fb3541aea5ffdeb387f0119accdfafd1824299e97eb81dee7be83581604051610dda9190612bee565b60405180910390a150565b6000806000600485604051610dfa919061284c565b9081526040805191829003602090810183206001600160a01b0388166000908152908252829020606084018352805460ff90811615158086526001830154938601849052600290920154161515939092019290925293509150509250929050565b610eee60405180610200016040528060006001600160a01b03168152602001600081526020016000815260200160008152602001600015158152602001606081526020016000815260200160008152602001600015158152602001600015158152602001600081526020016000815260200160008152602001600015158152602001600081526020016000151581525090565b600382604051610efe919061284c565b9081526040805191829003602090810183206102008401835280546001600160a01b0316845260018101549184019190915260028101549183019190915260038101546060830152600481015460ff161515608083015260058101805460a084019190610f6a906128e2565b80601f0160208091040260200160405190810160405280929190818152602001828054610f96906128e2565b8015610fe35780601f10610fb857610100808354040283529160200191610fe3565b820191906000526020600020905b815481529060010190602001808311610fc657829003601f168201915b50505091835250506006820154602082015260078201546040820152600882015460ff8082161515606084015261010091829004811615156080840152600984015460a0840152600a84015460c0840152600b84015460e0840152600c8401548116151591830191909152600d830154610120830152600e9092015490911615156101409091015292915050565b600080600383604051611084919061284c565b908152604051908190036020019020600881015490915060ff610100909104166110e35760405162461bcd60e51b815260206004820152601060248201526f10995d081b9bdd081c995cdbdb1d995960821b604482015260640161045c565b600481015460ff1615611215576000600782600501604051611105919061298f565b908152604051908190036020019020546001600160a01b031690508061113d5760405162461bcd60e51b815260040161045c9061299b565b60008190506000816001600160a01b031663feaf968c6040518163ffffffff1660e01b815260040160a060405180830381865afa158015611182573d6000803e3d6000fd5b505050506040513d601f19601f820116820180604052508101906111a691906129de565b50505091505060006111bc856006015483611d01565b90508460070154811061120857600685015460088601549083119060ff1680156111e35750805b806111fc5750600886015460ff161580156111fc575080155b98975050505050505050565b5060009695505050505050565b600a8101546009909101541192915050565b61122f611c4e565b6107c58282612112565b600060078260405161124b919061284c565b908152604051908190036020019020546001600160a01b031692915050565b60606008805480602002602001604051908101604052809291908181526020016000905b8282101561133a5783829060005260206000200180546112ad906128e2565b80601f01602080910402602001604051908101604052809291908181526020018280546112d9906128e2565b80156113265780601f106112fb57610100808354040283529160200191611326565b820191906000526020600020905b81548152906001019060200180831161130957829003601f168201915b50505050508152602001906001019061128e565b50505050905090565b61134b611c4e565b610ad6816122fb565b61135c611ca8565b60025434146113a15760405162461bcd60e51b81526020600482015260116024820152704d757374207374616b6520332043454c4f60781b604482015260640161045c565b67016345785d8a00008610156113ee5760405162461bcd60e51b8152602060048201526012602482015271566f7465207374616b6520746f6f206c6f7760701b604482015260640161045c565b61012c8510158015611403575062278d008511155b6114425760405162461bcd60e51b815260206004820152601060248201526f24b73b30b634b210323ab930ba34b7b760811b604482015260640161045c565b60006001600160a01b031660038860405161145d919061284c565b908152604051908190036020019020546001600160a01b0316146114b85760405162461bcd60e51b815260206004820152601260248201527142657420616c72656164792065786973747360701b604482015260640161045c565b83156117c05760006007846040516114d0919061284c565b908152604051908190036020019020546001600160a01b031690508061152c5760405162461bcd60e51b8152602060048201526011602482015270155b9cdd5c1c1bdc9d195908185cdcd95d607a1b604482015260640161045c565b60008311801561153d575060148311155b61157d5760405162461bcd60e51b8152602060048201526011602482015270125b9d985b1a59081d1a1c995cda1bdb19607a1b604482015260640161045c565b60008190506000816001600160a01b031663feaf968c6040518163ffffffff1660e01b815260040160a060405180830381865afa1580156115c2573d6000803e3d6000fd5b505050506040513d601f19601f820116820180604052508101906115e691906129de565b5050509150506000811361160c5760405162461bcd60e51b815260040161045c90612a2e565b60408051610200810182523381523460208201529081018a9052606081016116348a42612897565b81526020016001151581526020018781526020018281526020018681526020018515158152602001600015158152602001600081526020016000815260200160008152602001600015158152602001600081526020016000151581525060038b6040516116a1919061284c565b9081526040805160209281900383019020835181546001600160a01b0319166001600160a01b03909116178155918301516001830155820151600282015560608201516003820155608082015160048201805460ff191691151591909117905560a082015160058201906117159082612c01565b5060c0820151600682015560e0820151600782015561010080830151600883018054610120860151151590930261ff00199215159290921661ffff19909316929092171790556101408201516009820155610160820151600a820155610180820151600b8201556101a0820151600c8201805491151560ff199283161790556101c0830151600d8301556101e090920151600e9091018054911515919092161790555061197e915050565b6040805161020081018252338152346020820152908101879052606081016117e88742612897565b815260200160001515815260200160405180602001604052806000815250815260200160008152602001600081526020016000151581526020016000151581526020016000815260200160008152602001600081526020016000151581526020016000815260200160001515815250600388604051611867919061284c565b9081526040805160209281900383019020835181546001600160a01b0319166001600160a01b03909116178155918301516001830155820151600282015560608201516003820155608082015160048201805460ff191691151591909117905560a082015160058201906118db9082612c01565b5060c0820151600682015560e0820151600782015561010080830151600883018054610120860151151590930261ff00199215159290921661ffff19909316929092171790556101408201516009820155610160820151600a820155610180820151600b8201556101a0820151600c8201805491151560ff199283161790556101c0830151600d8301556101e090920151600e9091018054911515919092161790555b7f21e684be21319ba5ef007edca3bbc60e1ed7354bc368aa05dcd462f779ffef7587303334876040516119b5959493929190612cbb565b60405180910390a16119c76001600055565b50505050505050565b6119d8611ca8565b60006003826040516119ea919061284c565b908152604051908190036020019020600881015490915060ff61010090910416611a495760405162461bcd60e51b815260206004820152601060248201526f10995d081b9bdd081c995cdbdb1d995960821b604482015260640161045c565b6000600483604051611a5b919061284c565b9081526040805160209281900383019020336000908152925290206001810154909150611aba5760405162461bcd60e51b815260206004820152600d60248201526c139bc81d9bdd1948199bdd5b99609a1b604482015260640161045c565b600281015460ff1615611b015760405162461bcd60e51b815260206004820152600f60248201526e105b1c9958591e4818db185a5b5959608a1b604482015260640161045c565b600c820154815460ff90811615159116151514611b4e5760405162461bcd60e51b815260206004820152600b60248201526a2234b2103737ba103bb4b760a91b604482015260640161045c565b60028101805460ff19166001179055600c820154600090611b7390859060ff16612371565b604051909150600090339083908381818185875af1925050503d8060008114611bb8576040519150601f19603f3d011682016040523d82523d6000602084013e611bbd565b606091505b5050905080611c055760405162461bcd60e51b81526020600482015260146024820152734661696c656420746f2073656e64207072697a6560601b604482015260640161045c565b7f03fcbbdf8f723f64756f2a8bd13039d673bfda48e348d21bc292b1a5a6b1746e853384604051611c3893929190612cfe565b60405180910390a150505050610ad66001600055565b6001546001600160a01b03163314610c3c5760405162461bcd60e51b815260206004820181905260248201527f4f776e61626c653a2063616c6c6572206973206e6f7420746865206f776e6572604482015260640161045c565b600260005403611cfa5760405162461bcd60e51b815260206004820152601f60248201527f5265656e7472616e637947756172643a207265656e7472616e742063616c6c00604482015260640161045c565b6002600055565b600082821115611d325782611d168184612a95565b611d21906064612d2c565b611d2b9190612d43565b9050611d3d565b82611d168382612a95565b92915050565b6000600382604051611d55919061284c565b9081526020016040518091039020905060005b600583604051611d78919061284c565b90815260405190819003602001902054811015611f08576000600584604051611da1919061284c565b90815260200160405180910390208281548110611dc057611dc0612a7f565b6000918252602090912001546040516001600160a01b039091169150600490611dea90869061284c565b90815260408051602092819003830190206001600160a01b0384166000908152925290206002015460ff16611ef5576001600485604051611e2b919061284c565b90815260408051602092819003830181206001600160a01b0386166000818152919094529182206002908101805460ff19169515159590951790945592860154909260006040518083038185875af1925050503d8060008114611eaa576040519150601f19603f3d011682016040523d82523d6000602084013e611eaf565b606091505b5050905080611ef35760405162461bcd60e51b815260206004820152601060248201526f11985a5b1959081d1bc81c99599d5b9960821b604482015260640161045c565b505b5080611f008161287e565b915050611d68565b5060005b600683604051611f1c919061284c565b908152604051908190036020019020548110156120ac576000600684604051611f45919061284c565b90815260200160405180910390208281548110611f6457611f64612a7f565b6000918252602090912001546040516001600160a01b039091169150600490611f8e90869061284c565b90815260408051602092819003830190206001600160a01b0384166000908152925290206002015460ff16612099576001600485604051611fcf919061284c565b90815260408051602092819003830181206001600160a01b0386166000818152919094529182206002908101805460ff19169515159590951790945592860154909260006040518083038185875af1925050503d806000811461204e576040519150601f19603f3d011682016040523d82523d6000602084013e612053565b606091505b50509050806120975760405162461bcd60e51b815260206004820152601060248201526f11985a5b1959081d1bc81c99599d5b9960821b604482015260640161045c565b505b50806120a48161287e565b915050611f0c565b50600801805461ff00191661010017905550565b600180546001600160a01b038381166001600160a01b0319831681179093556040519116919082907f8be0079c531659141344cd1fd0a4f28419497f9722a3daafe3b4186f6b6457e090600090a35050565b6001600160a01b0381166121385760405162461bcd60e51b815260040161045c90612a2e565b60006001600160a01b0316600783604051612153919061284c565b908152604051908190036020019020546001600160a01b0316146121b05760405162461bcd60e51b8152602060048201526014602482015273417373657420616c72656164792065786973747360601b604482015260640161045c565b60008190506000816001600160a01b031663feaf968c6040518163ffffffff1660e01b815260040160a060405180830381865afa1580156121f5573d6000803e3d6000fd5b505050506040513d601f19601f8201168201806040525081019061221991906129de565b5050509150506000811361223f5760405162461bcd60e51b815260040161045c90612a2e565b82600785604051612250919061284c565b90815260405190819003602001902080546001600160a01b03929092166001600160a01b0319909216919091179055600880546001810182556000919091527ff3f7a9fe364faab93b216da50a3214154f22a0a2b415b23a84c8169e8b636ee3016122bb8582612c01565b507f77780d19d6f850ec861d508f6035068d0b68fb9d334887c55393910e9b2951ea84846040516122ed929190612d65565b60405180910390a150505050565b612303611c4e565b6001600160a01b0381166123685760405162461bcd60e51b815260206004820152602660248201527f4f776e61626c653a206e6577206f776e657220697320746865207a65726f206160448201526564647265737360d01b606482015260840161045c565b610ad6816120c0565b600080600384604051612384919061284c565b908152602001604051809103902090506000836123a55781600a01546123ab565b81600901545b90508082600b01546123bd9190612d43565b95945050505050565b5080546123d2906128e2565b6000825580601f106123e2575050565b601f016020900490600052602060002090810190610ad691905b8082111561241057600081556001016123fc565b5090565b60006020828403121561242657600080fd5b5035919050565b634e487b7160e01b600052604160045260246000fd5b600082601f83011261245457600080fd5b813567ffffffffffffffff8082111561246f5761246f61242d565b604051601f8301601f19908116603f011681019082821181831017156124975761249761242d565b816040528381528660208588010111156124b057600080fd5b836020870160208301376000602085830101528094505050505092915050565b803580151581146124e057600080fd5b919050565b600080604083850312156124f857600080fd5b823567ffffffffffffffff81111561250f57600080fd5b61251b85828601612443565b92505061252a602084016124d0565b90509250929050565b60006020828403121561254557600080fd5b813567ffffffffffffffff81111561255c57600080fd5b61256884828501612443565b949350505050565b80356001600160a01b03811681146124e057600080fd5b6000806040838503121561259a57600080fd5b823567ffffffffffffffff8111156125b157600080fd5b6125bd85828601612443565b92505061252a60208401612570565b60005b838110156125e75781810151838201526020016125cf565b50506000910152565b600081518084526126088160208601602086016125cc565b601f01601f19169290920160200192915050565b602081526126366020820183516001600160a01b03169052565b6020820151604082015260408201516060820152606082015160808201526000608083015161266960a084018215159052565b5060a08301516102008060c08501526126866102208501836125f0565b915060c085015160e085015260e08501516101008181870152808701519150506101206126b68187018315159052565b86015190506101406126cb8682018315159052565b86015161016086810191909152860151610180808701919091528601516101a08087019190915286015190506101c06127078187018315159052565b8601516101e08681019190915290950151151593019290925250919050565b6000602080830181845280855180835260408601915060408160051b870101925083870160005b8281101561277b57603f198886030184526127698583516125f0565b9450928501929085019060010161274d565b5092979650505050505050565b60006020828403121561279a57600080fd5b6127a382612570565b9392505050565b600080600080600080600060e0888a0312156127c557600080fd5b873567ffffffffffffffff808211156127dd57600080fd5b6127e98b838c01612443565b985060208a0135975060408a0135965061280560608b016124d0565b955060808a013591508082111561281b57600080fd5b506128288a828b01612443565b93505060a0880135915061283e60c089016124d0565b905092959891949750929550565b6000825161285e8184602087016125cc565b9190910192915050565b634e487b7160e01b600052601160045260246000fd5b60006001820161289057612890612868565b5060010190565b80820180821115611d3d57611d3d612868565b6080815260006128bd60808301876125f0565b6001600160a01b03959095166020830152509115156040830152606090910152919050565b600181811c908216806128f657607f821691505b60208210810361291657634e487b7160e01b600052602260045260246000fd5b50919050565b60008154612929816128e2565b60018281168015612941576001811461295657612985565b60ff1984168752821515830287019450612985565b8560005260208060002060005b8581101561297c5781548a820152908401908201612963565b50505082870194505b5050505092915050565b60006127a3828461291c565b6020808252600f908201526e105cdcd95d081b9bdd08199bdd5b99608a1b604082015260600190565b805169ffffffffffffffffffff811681146124e057600080fd5b600080600080600060a086880312156129f657600080fd5b6129ff866129c4565b9450602086015193506040860151925060608601519150612a22608087016129c4565b90509295509295909350565b602080825260129082015271125b9d985b1a59081c1c9a58d9481999595960721b604082015260600190565b606081526000612a6d60608301866125f0565b93151560208301525060400152919050565b634e487b7160e01b600052603260045260246000fd5b81810381811115611d3d57611d3d612868565b601f821115612af257600081815260208120601f850160051c81016020861015612acf5750805b601f850160051c820191505b81811015612aee57828155600101612adb565b5050505b505050565b818103612b02575050565b612b0c82546128e2565b67ffffffffffffffff811115612b2457612b2461242d565b612b3881612b3284546128e2565b84612aa8565b6000601f821160018114612b6c5760008315612b545750848201545b600019600385901b1c1916600184901b178455612bd1565b600085815260209020601f19841690600086815260209020845b83811015612ba65782860154825560019586019590910190602001612b86565b5085831015612bc45781850154600019600388901b60f8161c191681555b50505060018360011b0184555b5050505050565b634e487b7160e01b600052603160045260246000fd5b6020815260006127a360208301846125f0565b815167ffffffffffffffff811115612c1b57612c1b61242d565b612c2981612b3284546128e2565b602080601f831160018114612c5e5760008415612c465750858301515b600019600386901b1c1916600185901b178555612aee565b600085815260208120601f198616915b82811015612c8d57888601518255948401946001909101908401612c6e565b5085821015612cab5787850151600019600388901b60f8161c191681555b5050505050600190811b01905550565b60a081526000612cce60a08301886125f0565b6001600160a01b038781166020850152861660408401526060830185905282810360808401526111fc81856125f0565b606081526000612d1160608301866125f0565b6001600160a01b039490941660208301525060400152919050565b8082028115828204841417611d3d57611d3d612868565b600082612d6057634e487b7160e01b600052601260045260246000fd5b500490565b604081526000612d7860408301856125f0565b905060018060a01b0383166020830152939250505056fea2646970667358221220ce7ad61e0ee1112cf14eeddc8db6ddf7f1c94d1d2dc2ca88107a15ab72e569ad64736f6c63430008130033",
  "linkReferences": {},
  "deployedLinkReferences": {}
}