{
  "_format": "hh-sol-artifact-1",
  "contractName": "Betcaster",
  "sourceName": "contracts/Betcaster.sol",
  "abi": [
    {
      "inputs": [
        {
          "internalType": "string[]",
          "name": "assets",
          "type": "string[]"
        },
        {
          "internalType": "address[]",
          "name": "priceFeeds",
          "type": "address[]"
        }
      ],
      "stateMutability": "nonpayable",
      "type": "constructor"
    },
    {
      "anonymous": false,
      "inputs": [
        {
          "indexed": false,
          "internalType": "string",
          "name": "symbol",
          "type": "string"
        },
        {
          "indexed": false,
          "internalType": "address",
          "name": "priceFeed",
          "type": "address"
        }
      ],
      "name": "AssetAdded",
      "type": "event"
    },
    {
      "anonymous": false,
      "inputs": [
        {
          "indexed": false,
          "internalType": "string",
          "name": "symbol",
          "type": "string"
        }
      ],
      "name": "AssetRemoved",
      "type": "event"
    },
    {
      "anonymous": false,
      "inputs": [
        {
          "indexed": false,
          "internalType": "string",
          "name": "betId",
          "type": "string"
        },
        {
          "indexed": false,
          "internalType": "address",
          "name": "betContract",
          "type": "address"
        },
        {
          "indexed": false,
          "internalType": "address",
          "name": "creator",
          "type": "address"
        },
        {
          "indexed": false,
          "internalType": "uint256",
          "name": "stakeAmount",
          "type": "uint256"
        },
        {
          "indexed": false,
          "internalType": "string",
          "name": "asset",
          "type": "string"
        }
      ],
      "name": "BetCreated",
      "type": "event"
    },
    {
      "anonymous": false,
      "inputs": [
        {
          "indexed": false,
          "internalType": "string",
          "name": "betId",
          "type": "string"
        },
        {
          "indexed": false,
          "internalType": "bool",
          "name": "yayWon",
          "type": "bool"
        },
        {
          "indexed": false,
          "internalType": "uint256",
          "name": "totalPrize",
          "type": "uint256"
        }
      ],
      "name": "BetResolved",
      "type": "event"
    },
    {
      "anonymous": false,
      "inputs": [
        {
          "indexed": true,
          "internalType": "address",
          "name": "previousOwner",
          "type": "address"
        },
        {
          "indexed": true,
          "internalType": "address",
          "name": "newOwner",
          "type": "address"
        }
      ],
      "name": "OwnershipTransferred",
      "type": "event"
    },
    {
      "anonymous": false,
      "inputs": [
        {
          "indexed": false,
          "internalType": "string",
          "name": "betId",
          "type": "string"
        },
        {
          "indexed": false,
          "internalType": "address",
          "name": "winner",
          "type": "address"
        },
        {
          "indexed": false,
          "internalType": "uint256",
          "name": "amount",
          "type": "uint256"
        }
      ],
      "name": "PrizeDistributed",
      "type": "event"
    },
    {
      "anonymous": false,
      "inputs": [
        {
          "indexed": false,
          "internalType": "string",
          "name": "betId",
          "type": "string"
        },
        {
          "indexed": false,
          "internalType": "address",
          "name": "voter",
          "type": "address"
        },
        {
          "indexed": false,
          "internalType": "bool",
          "name": "isYay",
          "type": "bool"
        },
        {
          "indexed": false,
          "internalType": "uint256",
          "name": "amount",
          "type": "uint256"
        }
      ],
      "name": "VoteCast",
      "type": "event"
    },
    {
      "inputs": [],
      "name": "MAX_DURATION",
      "outputs": [
        {
          "internalType": "uint256",
          "name": "",
          "type": "uint256"
        }
      ],
      "stateMutability": "view",
      "type": "function"
    },
    {
      "inputs": [],
      "name": "MIN_DURATION",
      "outputs": [
        {
          "internalType": "uint256",
          "name": "",
          "type": "uint256"
        }
      ],
      "stateMutability": "view",
      "type": "function"
    },
    {
      "inputs": [],
      "name": "MIN_VOTE_STAKE",
      "outputs": [
        {
          "internalType": "uint256",
          "name": "",
          "type": "uint256"
        }
      ],
      "stateMutability": "view",
      "type": "function"
    },
    {
      "inputs": [],
      "name": "PLATFORM_STAKE",
      "outputs": [
        {
          "internalType": "uint256",
          "name": "",
          "type": "uint256"
        }
      ],
      "stateMutability": "view",
      "type": "function"
    },
    {
      "inputs": [
        {
          "internalType": "string",
          "name": "symbol",
          "type": "string"
        },
        {
          "internalType": "address",
          "name": "priceFeed",
          "type": "address"
        }
      ],
      "name": "addAsset",
      "outputs": [],
      "stateMutability": "nonpayable",
      "type": "function"
    },
    {
      "inputs": [
        {
          "internalType": "string",
          "name": "betId",
          "type": "string"
        },
        {
          "internalType": "bool",
          "name": "isYay",
          "type": "bool"
        }
      ],
      "name": "castVote",
      "outputs": [],
      "stateMutability": "payable",
      "type": "function"
    },
    {
      "inputs": [
        {
          "internalType": "string",
          "name": "betId",
          "type": "string"
        }
      ],
      "name": "claimPrize",
      "outputs": [],
      "stateMutability": "nonpayable",
      "type": "function"
    },
    {
      "inputs": [
        {
          "internalType": "string",
          "name": "betId",
          "type": "string"
        },
        {
          "internalType": "uint256",
          "name": "voteStake",
          "type": "uint256"
        },
        {
          "internalType": "uint256",
          "name": "duration",
          "type": "uint256"
        },
        {
          "internalType": "bool",
          "name": "isVerified",
          "type": "bool"
        },
        {
          "internalType": "string",
          "name": "asset",
          "type": "string"
        },
        {
          "internalType": "uint256",
          "name": "priceThreshold",
          "type": "uint256"
        },
        {
          "internalType": "bool",
          "name": "isPump",
          "type": "bool"
        }
      ],
      "name": "createBet",
      "outputs": [],
      "stateMutability": "payable",
      "type": "function"
    },
    {
      "inputs": [
        {
          "internalType": "string",
          "name": "betId",
          "type": "string"
        }
      ],
      "name": "getBetInfo",
      "outputs": [
        {
          "components": [
            {
              "internalType": "address",
              "name": "creator",
              "type": "address"
            },
            {
              "internalType": "uint256",
              "name": "platformStake",
              "type": "uint256"
            },
            {
              "internalType": "uint256",
              "name": "voteStake",
              "type": "uint256"
            },
            {
              "internalType": "uint256",
              "name": "expiryTime",
              "type": "uint256"
            },
            {
              "internalType": "bool",
              "name": "isVerified",
              "type": "bool"
            },
            {
              "internalType": "string",
              "name": "asset",
              "type": "string"
            },
            {
              "internalType": "uint256",
              "name": "startPrice",
              "type": "uint256"
            },
            {
              "internalType": "uint256",
              "name": "priceThreshold",
              "type": "uint256"
            },
            {
              "internalType": "bool",
              "name": "isPump",
              "type": "bool"
            },
            {
              "internalType": "bool",
              "name": "isResolved",
              "type": "bool"
            },
            {
              "internalType": "uint256",
              "name": "totalYayVotes",
              "type": "uint256"
            },
            {
              "internalType": "uint256",
              "name": "totalNayVotes",
              "type": "uint256"
            },
            {
              "internalType": "uint256",
              "name": "prizePool",
              "type": "uint256"
            },
            {
              "internalType": "bool",
              "name": "yayWon",
              "type": "bool"
            },
            {
              "internalType": "uint256",
              "name": "endPrice",
              "type": "uint256"
            },
            {
              "internalType": "bool",
              "name": "thresholdMet",
              "type": "bool"
            }
          ],
          "internalType": "struct IBetcaster.BetInfo",
          "name": "",
          "type": "tuple"
        }
      ],
      "stateMutability": "view",
      "type": "function"
    },
    {
      "inputs": [
        {
          "internalType": "string",
          "name": "asset",
          "type": "string"
        }
      ],
      "name": "getPriceFeed",
      "outputs": [
        {
          "internalType": "address",
          "name": "",
          "type": "address"
        }
      ],
      "stateMutability": "view",
      "type": "function"
    },
    {
      "inputs": [],
      "name": "getSupportedAssets",
      "outputs": [
        {
          "internalType": "string[]",
          "name": "",
          "type": "string[]"
        }
      ],
      "stateMutability": "view",
      "type": "function"
    },
    {
      "inputs": [
        {
          "internalType": "string",
          "name": "betId",
          "type": "string"
        },
        {
          "internalType": "address",
          "name": "user",
          "type": "address"
        }
      ],
      "name": "getUserVote",
      "outputs": [
        {
          "internalType": "bool",
          "name": "isYay",
          "type": "bool"
        },
        {
          "internalType": "uint256",
          "name": "amount",
          "type": "uint256"
        }
      ],
      "stateMutability": "view",
      "type": "function"
    },
    {
      "inputs": [
        {
          "internalType": "string",
          "name": "betId",
          "type": "string"
        },
        {
          "internalType": "address",
          "name": "user",
          "type": "address"
        }
      ],
      "name": "getUserVoteInfo",
      "outputs": [
        {
          "internalType": "bool",
          "name": "isYay",
          "type": "bool"
        },
        {
          "internalType": "uint256",
          "name": "amount",
          "type": "uint256"
        },
        {
          "internalType": "bool",
          "name": "claimed",
          "type": "bool"
        }
      ],
      "stateMutability": "view",
      "type": "function"
    },
    {
      "inputs": [
        {
          "internalType": "string",
          "name": "betId",
          "type": "string"
        }
      ],
      "name": "getWinningVote",
      "outputs": [
        {
          "internalType": "bool",
          "name": "yayWon",
          "type": "bool"
        }
      ],
      "stateMutability": "view",
      "type": "function"
    },
    {
      "inputs": [],
      "name": "owner",
      "outputs": [
        {
          "internalType": "address",
          "name": "",
          "type": "address"
        }
      ],
      "stateMutability": "view",
      "type": "function"
    },
    {
      "inputs": [
        {
          "internalType": "string",
          "name": "symbol",
          "type": "string"
        }
      ],
      "name": "removeAsset",
      "outputs": [],
      "stateMutability": "nonpayable",
      "type": "function"
    },
    {
      "inputs": [],
      "name": "renounceOwnership",
      "outputs": [],
      "stateMutability": "nonpayable",
      "type": "function"
    },
    {
      "inputs": [
        {
          "internalType": "string",
          "name": "betId",
          "type": "string"
        }
      ],
      "name": "resolveBet",
      "outputs": [],
      "stateMutability": "nonpayable",
      "type": "function"
    },
    {
      "inputs": [
        {
          "internalType": "address",
          "name": "newOwner",
          "type": "address"
        }
      ],
      "name": "transferOwnership",
      "outputs": [],
      "stateMutability": "nonpayable",
      "type": "function"
    },
    {
      "inputs": [],
      "name": "withdraw",
      "outputs": [],
      "stateMutability": "nonpayable",
      "type": "function"
    }
  ],
  "bytecode": "0x60806040523480156200001157600080fd5b506040516200359b3803806200359b8339810160408190526200003491620004ce565b6001600055620000443362000110565b80518251146200009b5760405162461bcd60e51b815260206004820152601660248201527f417272617973206c656e677468206d69736d617463680000000000000000000060448201526064015b60405180910390fd5b60005b82518110156200010757620000f2838281518110620000c157620000c16200060c565b6020026020010151838381518110620000de57620000de6200060c565b60200260200101516200016260201b60201c565b80620000fe8162000622565b9150506200009e565b5050506200087b565b600180546001600160a01b038381166001600160a01b0319831681179093556040519116919082907f8be0079c531659141344cd1fd0a4f28419497f9722a3daafe3b4186f6b6457e090600090a35050565b6001600160a01b038116620001af5760405162461bcd60e51b8152602060048201526012602482015271125b9d985b1a59081c1c9a58d9481999595960721b604482015260640162000092565b60006001600160a01b0316600683604051620001cc91906200064a565b908152604051908190036020019020546001600160a01b031614620002345760405162461bcd60e51b815260206004820152601460248201527f417373657420616c726561647920657869737473000000000000000000000000604482015260640162000092565b60008190506000816001600160a01b031663feaf968c6040518163ffffffff1660e01b815260040160a060405180830381865afa1580156200027a573d6000803e3d6000fd5b505050506040513d601f19601f82011682018060405250810190620002a0919062000685565b50505091505060008113620002ed5760405162461bcd60e51b8152602060048201526012602482015271125b9d985b1a59081c1c9a58d9481999595960721b604482015260640162000092565b826006856040516200030091906200064a565b90815260405190819003602001902080546001600160a01b03929092166001600160a01b0319909216919091179055600780546001810182556000919091527fa66cc928b5edb82af9bd49922954155ab7b0942694bea4ce44661d9a8736c688016200036d858262000769565b507f77780d19d6f850ec861d508f6035068d0b68fb9d334887c55393910e9b2951ea8484604051620003a192919062000835565b60405180910390a150505050565b634e487b7160e01b600052604160045260246000fd5b604051601f8201601f191681016001600160401b0381118282101715620003f057620003f0620003af565b604052919050565b60006001600160401b03821115620004145762000414620003af565b5060051b60200190565b60005b838110156200043b57818101518382015260200162000421565b50506000910152565b600082601f8301126200045657600080fd5b815160206200046f6200046983620003f8565b620003c5565b82815260059290921b840181019181810190868411156200048f57600080fd5b8286015b84811015620004c35780516001600160a01b0381168114620004b55760008081fd5b835291830191830162000493565b509695505050505050565b6000806040808486031215620004e357600080fd5b83516001600160401b0380821115620004fb57600080fd5b8186019150601f87818401126200051157600080fd5b82516020620005246200046983620003f8565b82815260059290921b8501810191818101908b8411156200054457600080fd5b8287015b84811015620005d657805187811115620005625760008081fd5b8801603f81018e13620005755760008081fd5b84810151888111156200058c576200058c620003af565b6200059f818901601f19168701620003c5565b8181528f8c838501011115620005b55760008081fd5b620005c6828883018e86016200041e565b8552505091830191830162000548565b50918a015191985090955050505080831115620005f257600080fd5b5050620006028582860162000444565b9150509250929050565b634e487b7160e01b600052603260045260246000fd5b6000600182016200064357634e487b7160e01b600052601160045260246000fd5b5060010190565b600082516200065e8184602087016200041e565b9190910192915050565b80516001600160501b03811681146200068057600080fd5b919050565b600080600080600060a086880312156200069e57600080fd5b620006a98662000668565b9450602086015193506040860151925060608601519150620006ce6080870162000668565b90509295509295909350565b600181811c90821680620006ef57607f821691505b6020821081036200071057634e487b7160e01b600052602260045260246000fd5b50919050565b601f8211156200076457600081815260208120601f850160051c810160208610156200073f5750805b601f850160051c820191505b8181101562000760578281556001016200074b565b5050505b505050565b81516001600160401b03811115620007855762000785620003af565b6200079d81620007968454620006da565b8462000716565b602080601f831160018114620007d55760008415620007bc5750858301515b600019600386901b1c1916600185901b17855562000760565b600085815260208120601f198616915b828110156200080657888601518255948401946001909101908401620007e5565b5085821015620008255787850151600019600388901b60f8161c191681555b5050505050600190811b01905550565b6040815260008351806040840152620008568160608501602088016200041e565b6001600160a01b0393909316602083015250601f91909101601f191601606001919050565b612d10806200088b6000396000f3fe60806040526004361061011f5760003560e01c80639c061a9b116100a0578063b6a6d17711610064578063b6a6d1771461034a578063e5406dbf14610360578063f2fde38b14610382578063f32b5e71146103a2578063fa73914c146103b557600080fd5b80639c061a9b146102a75780639ce5738a146102d7578063adc02a64146102f3578063b1724b4614610313578063b50584b31461032a57600080fd5b8063759af9ec116100e7578063759af9ec146101c75780637ceb96dc146101e75780637d3a67151461021e5780638da5cb5b1461024b57806395beeae81461027d57600080fd5b8063199edd7a1461012457806334ca0205146101395780633ccfd60b146101595780634458c1eb1461016e578063715018a6146101b2575b600080fd5b610137610132366004612430565b6103d5565b005b34801561014557600080fd5b5061013761015436600461247e565b610739565b34801561016557600080fd5b50610137610a49565b34801561017a57600080fd5b5061018e6101893660046124d2565b610b3c565b60408051931515845260208401929092521515908201526060015b60405180910390f35b3480156101be57600080fd5b50610137610b9a565b3480156101d357600080fd5b506101376101e236600461247e565b610bae565b3480156101f357600080fd5b506102076102023660046124d2565b610d55565b6040805192151583526020830191909152016101a9565b34801561022a57600080fd5b5061023e61023936600461247e565b610dcb565b6040516101a99190612567565b34801561025757600080fd5b506001546001600160a01b03165b6040516001600160a01b0390911681526020016101a9565b34801561028957600080fd5b5061029967016345785d8a000081565b6040519081526020016101a9565b3480156102b357600080fd5b506102c76102c236600461247e565b610fe1565b60405190151581526020016101a9565b3480156102e357600080fd5b506102996729a2241af62c000081565b3480156102ff57600080fd5b5061013761030e3660046124d2565b611197565b34801561031f57600080fd5b5061029962278d0081565b34801561033657600080fd5b5061026561034536600461247e565b6111a9565b34801561035657600080fd5b5061029961012c81565b34801561036c57600080fd5b506103756111da565b6040516101a99190612671565b34801561038e57600080fd5b5061013761039d3660046126d3565b6112b3565b6101376103b03660046126f5565b611329565b3480156103c157600080fd5b506101376103d036600461247e565b6119aa565b6103dd611c28565b60006002836040516103ef9190612797565b90815260405190819003602001902080549091506001600160a01b03166104515760405162461bcd60e51b815260206004820152601160248201527010995d08191bd95cdb89dd08195e1a5cdd607a1b60448201526064015b60405180910390fd5b6008810154610100900460ff16156104a25760405162461bcd60e51b815260206004820152601460248201527310995d08185b1c9958591e481c995cdbdb1d995960621b6044820152606401610448565b806003015442106104e35760405162461bcd60e51b815260206004820152600b60248201526a10995d08195e1c1a5c995960aa1b6044820152606401610448565b8060020154341461052d5760405162461bcd60e51b8152602060048201526014602482015273496e636f727265637420766f7465207374616b6560601b6044820152606401610448565b60038360405161053d9190612797565b90815260408051602092819003830190203360009081529252902060010154156105995760405162461bcd60e51b815260206004820152600d60248201526c105b1c9958591e481d9bdd1959609a1b6044820152606401610448565b60408051606081018252831515815234602082015260008183015290516003906105c4908690612797565b908152604080519182900360209081019092203360009081529083528190208351815490151560ff19918216178255928401516001820155920151600290920180549215159290911691909117905581156106785760098101805490600061062b836127c9565b91905055506004836040516106409190612797565b908152604051908190036020908101909120805460018101825560009182529190200180546001600160a01b031916331790556106d3565b600a8101805490600061068a836127c9565b919050555060058360405161069f9190612797565b908152604051908190036020908101909120805460018101825560009182529190200180546001600160a01b031916331790555b3481600b0160008282546106e791906127e2565b90915550506040517f8f939c0e8da82099bc9be68995da582362fa8d3032227846326c305b0f2d2e37906107229085903390869034906127f5565b60405180910390a1506107356001600055565b5050565b610741611c28565b60006002826040516107539190612797565b90815260405190819003602001902080549091506001600160a01b03166107b05760405162461bcd60e51b815260206004820152601160248201527010995d08191bd95cdb89dd08195e1a5cdd607a1b6044820152606401610448565b6008810154610100900460ff16156107fd5760405162461bcd60e51b815260206004820152601060248201526f105b1c9958591e481c995cdbdb1d995960821b6044820152606401610448565b80600301544210156108435760405162461bcd60e51b815260206004820152600f60248201526e139bdd08195e1c1a5c9959081e595d608a1b6044820152606401610448565b600481015460009060ff16156109b257600060068360050160405161086891906128da565b908152604051908190036020019020546001600160a01b03169050806108a05760405162461bcd60e51b8152600401610448906128e6565b60008190506000816001600160a01b031663feaf968c6040518163ffffffff1660e01b815260040160a060405180830381865afa1580156108e5573d6000803e3d6000fd5b505050506040513d601f19601f820116820180604052508101906109099190612929565b5050509150506000811361092f5760405162461bcd60e51b815260040161044890612979565b600061093f866006015483611c81565b6007870154600d8801849055600e8801805460ff19169183108015928317909155919250906109a357600687015460088801549084119060ff1680156109825750805b8061099b5750600888015460ff1615801561099b575080155b9650506109a8565b600095505b50505050506109d7565b50600a81015460098201548181119190036109d7576109d083611cc3565b5050610a3c565b600c8201805482151560ff1990911617905560088201805461ff001916610100179055600b8201546040517f2dc1320867f6e4d8057e00924f443f3d43424ea27536ef46d3a89cc75c02142191610a3191869185916129a5565b60405180910390a150505b610a466001600055565b50565b610a51612040565b4780610a965760405162461bcd60e51b81526020600482015260146024820152734e6f2066756e647320746f20776974686472617760601b6044820152606401610448565b6000610aaa6001546001600160a01b031690565b6001600160a01b03168260405160006040518083038185875af1925050503d8060008114610af4576040519150601f19603f3d011682016040523d82523d6000602084013e610af9565b606091505b50509050806107355760405162461bcd60e51b815260206004820152600f60248201526e15da5d1a191c985dc819985a5b1959608a1b6044820152606401610448565b600080600080600386604051610b529190612797565b908152604080519182900360209081019092206001600160a01b0388166000908152925290208054600182015460029092015460ff9182169650919450169150509250925092565b610ba2612040565b610bac600061209a565b565b610bb6612040565b60006001600160a01b0316600682604051610bd19190612797565b908152604051908190036020019020546001600160a01b031603610c075760405162461bcd60e51b8152600401610448906128e6565b600681604051610c179190612797565b90815260405190819003602001902080546001600160a01b031916905560005b600754811015610d1a57818051906020012060078281548110610c5c57610c5c6129ca565b90600052602060002001604051610c7391906128da565b604051809103902003610d085760078054610c90906001906129e0565b81548110610ca057610ca06129ca565b9060005260206000200160078281548110610cbd57610cbd6129ca565b906000526020600020019081610cd39190612a42565b506007805480610ce557610ce5612b23565b600190038181906000526020600020016000610d01919061232a565b9055610d1a565b80610d12816127c9565b915050610c37565b507f7704a686b2fb3541aea5ffdeb387f0119accdfafd1824299e97eb81dee7be83581604051610d4a9190612b39565b60405180910390a150565b6000806000600385604051610d6a9190612797565b9081526040805191829003602090810183206001600160a01b0388166000908152908252829020606084018352805460ff90811615158086526001830154938601849052600290920154161515939092019290925293509150509250929050565b610e5e60405180610200016040528060006001600160a01b03168152602001600081526020016000815260200160008152602001600015158152602001606081526020016000815260200160008152602001600015158152602001600015158152602001600081526020016000815260200160008152602001600015158152602001600081526020016000151581525090565b600282604051610e6e9190612797565b9081526040805191829003602090810183206102008401835280546001600160a01b0316845260018101549184019190915260028101549183019190915260038101546060830152600481015460ff161515608083015260058101805460a084019190610eda9061282d565b80601f0160208091040260200160405190810160405280929190818152602001828054610f069061282d565b8015610f535780601f10610f2857610100808354040283529160200191610f53565b820191906000526020600020905b815481529060010190602001808311610f3657829003601f168201915b50505091835250506006820154602082015260078201546040820152600882015460ff8082161515606084015261010091829004811615156080840152600984015460a0840152600a84015460c0840152600b84015460e0840152600c8401548116151591830191909152600d830154610120830152600e9092015490911615156101409091015292915050565b600080600283604051610ff49190612797565b908152604051908190036020019020600881015490915060ff610100909104166110535760405162461bcd60e51b815260206004820152601060248201526f10995d081b9bdd081c995cdbdb1d995960821b6044820152606401610448565b600481015460ff161561118557600060068260050160405161107591906128da565b908152604051908190036020019020546001600160a01b03169050806110ad5760405162461bcd60e51b8152600401610448906128e6565b60008190506000816001600160a01b031663feaf968c6040518163ffffffff1660e01b815260040160a060405180830381865afa1580156110f2573d6000803e3d6000fd5b505050506040513d601f19601f820116820180604052508101906111169190612929565b505050915050600061112c856006015483611c81565b90508460070154811061117857600685015460088601549083119060ff1680156111535750805b8061116c5750600886015460ff1615801561116c575080155b98975050505050505050565b5060009695505050505050565b600a8101546009909101541192915050565b61119f612040565b61073582826120ec565b60006006826040516111bb9190612797565b908152604051908190036020019020546001600160a01b031692915050565b60606007805480602002602001604051908101604052809291908181526020016000905b828210156112aa57838290600052602060002001805461121d9061282d565b80601f01602080910402602001604051908101604052809291908181526020018280546112499061282d565b80156112965780601f1061126b57610100808354040283529160200191611296565b820191906000526020600020905b81548152906001019060200180831161127957829003601f168201915b5050505050815260200190600101906111fe565b50505050905090565b6112bb612040565b6001600160a01b0381166113205760405162461bcd60e51b815260206004820152602660248201527f4f776e61626c653a206e6577206f776e657220697320746865207a65726f206160448201526564647265737360d01b6064820152608401610448565b610a468161209a565b611331611c28565b6729a2241af62c0000341461137b5760405162461bcd60e51b815260206004820152601060248201526f26bab9ba1039ba30b5b290199026a7a760811b6044820152606401610448565b67016345785d8a00008610156113c85760405162461bcd60e51b8152602060048201526012602482015271566f7465207374616b6520746f6f206c6f7760701b6044820152606401610448565b61012c85101580156113dd575062278d008511155b61141c5760405162461bcd60e51b815260206004820152601060248201526f24b73b30b634b210323ab930ba34b7b760811b6044820152606401610448565b60006001600160a01b03166002886040516114379190612797565b908152604051908190036020019020546001600160a01b0316146114925760405162461bcd60e51b815260206004820152601260248201527142657420616c72656164792065786973747360701b6044820152606401610448565b831561179a5760006006846040516114aa9190612797565b908152604051908190036020019020546001600160a01b03169050806115065760405162461bcd60e51b8152602060048201526011602482015270155b9cdd5c1c1bdc9d195908185cdcd95d607a1b6044820152606401610448565b600083118015611517575060148311155b6115575760405162461bcd60e51b8152602060048201526011602482015270125b9d985b1a59081d1a1c995cda1bdb19607a1b6044820152606401610448565b60008190506000816001600160a01b031663feaf968c6040518163ffffffff1660e01b815260040160a060405180830381865afa15801561159c573d6000803e3d6000fd5b505050506040513d601f19601f820116820180604052508101906115c09190612929565b505050915050600081136115e65760405162461bcd60e51b815260040161044890612979565b60408051610200810182523381523460208201529081018a90526060810161160e8a426127e2565b81526020016001151581526020018781526020018281526020018681526020018515158152602001600015158152602001600081526020016000815260200160008152602001600015158152602001600081526020016000151581525060028b60405161167b9190612797565b9081526040805160209281900383019020835181546001600160a01b0319166001600160a01b03909116178155918301516001830155820151600282015560608201516003820155608082015160048201805460ff191691151591909117905560a082015160058201906116ef9082612b4c565b5060c0820151600682015560e0820151600782015561010080830151600883018054610120860151151590930261ff00199215159290921661ffff19909316929092171790556101408201516009820155610160820151600a820155610180820151600b8201556101a0820151600c8201805491151560ff199283161790556101c0830151600d8301556101e090920151600e90910180549115159190921617905550611958915050565b6040805161020081018252338152346020820152908101879052606081016117c287426127e2565b8152602001600015158152602001604051806020016040528060008152508152602001600081526020016000815260200160001515815260200160001515815260200160008152602001600081526020016000815260200160001515815260200160008152602001600015158152506002886040516118419190612797565b9081526040805160209281900383019020835181546001600160a01b0319166001600160a01b03909116178155918301516001830155820151600282015560608201516003820155608082015160048201805460ff191691151591909117905560a082015160058201906118b59082612b4c565b5060c0820151600682015560e0820151600782015561010080830151600883018054610120860151151590930261ff00199215159290921661ffff19909316929092171790556101408201516009820155610160820151600a820155610180820151600b8201556101a0820151600c8201805491151560ff199283161790556101c0830151600d8301556101e090920151600e9091018054911515919092161790555b7f21e684be21319ba5ef007edca3bbc60e1ed7354bc368aa05dcd462f779ffef75873033348760405161198f959493929190612c06565b60405180910390a16119a16001600055565b50505050505050565b6119b2611c28565b60006002826040516119c49190612797565b908152604051908190036020019020600881015490915060ff61010090910416611a235760405162461bcd60e51b815260206004820152601060248201526f10995d081b9bdd081c995cdbdb1d995960821b6044820152606401610448565b6000600383604051611a359190612797565b9081526040805160209281900383019020336000908152925290206001810154909150611a945760405162461bcd60e51b815260206004820152600d60248201526c139bc81d9bdd1948199bdd5b99609a1b6044820152606401610448565b600281015460ff1615611adb5760405162461bcd60e51b815260206004820152600f60248201526e105b1c9958591e4818db185a5b5959608a1b6044820152606401610448565b600c820154815460ff90811615159116151514611b285760405162461bcd60e51b815260206004820152600b60248201526a2234b2103737ba103bb4b760a91b6044820152606401610448565b60028101805460ff19166001179055600c820154600090611b4d90859060ff166122d5565b604051909150600090339083908381818185875af1925050503d8060008114611b92576040519150601f19603f3d011682016040523d82523d6000602084013e611b97565b606091505b5050905080611bdf5760405162461bcd60e51b81526020600482015260146024820152734661696c656420746f2073656e64207072697a6560601b6044820152606401610448565b7f03fcbbdf8f723f64756f2a8bd13039d673bfda48e348d21bc292b1a5a6b1746e853384604051611c1293929190612c49565b60405180910390a150505050610a466001600055565b600260005403611c7a5760405162461bcd60e51b815260206004820152601f60248201527f5265656e7472616e637947756172643a207265656e7472616e742063616c6c006044820152606401610448565b6002600055565b600082821115611cb25782611c9681846129e0565b611ca1906064612c77565b611cab9190612c8e565b9050611cbd565b82611c9683826129e0565b92915050565b6000600282604051611cd59190612797565b9081526020016040518091039020905060005b600483604051611cf89190612797565b90815260405190819003602001902054811015611e88576000600484604051611d219190612797565b90815260200160405180910390208281548110611d4057611d406129ca565b6000918252602090912001546040516001600160a01b039091169150600390611d6a908690612797565b90815260408051602092819003830190206001600160a01b0384166000908152925290206002015460ff16611e75576001600385604051611dab9190612797565b90815260408051602092819003830181206001600160a01b0386166000818152919094529182206002908101805460ff19169515159590951790945592860154909260006040518083038185875af1925050503d8060008114611e2a576040519150601f19603f3d011682016040523d82523d6000602084013e611e2f565b606091505b5050905080611e735760405162461bcd60e51b815260206004820152601060248201526f11985a5b1959081d1bc81c99599d5b9960821b6044820152606401610448565b505b5080611e80816127c9565b915050611ce8565b5060005b600583604051611e9c9190612797565b9081526040519081900360200190205481101561202c576000600584604051611ec59190612797565b90815260200160405180910390208281548110611ee457611ee46129ca565b6000918252602090912001546040516001600160a01b039091169150600390611f0e908690612797565b90815260408051602092819003830190206001600160a01b0384166000908152925290206002015460ff16612019576001600385604051611f4f9190612797565b90815260408051602092819003830181206001600160a01b0386166000818152919094529182206002908101805460ff19169515159590951790945592860154909260006040518083038185875af1925050503d8060008114611fce576040519150601f19603f3d011682016040523d82523d6000602084013e611fd3565b606091505b50509050806120175760405162461bcd60e51b815260206004820152601060248201526f11985a5b1959081d1bc81c99599d5b9960821b6044820152606401610448565b505b5080612024816127c9565b915050611e8c565b50600801805461ff00191661010017905550565b6001546001600160a01b03163314610bac5760405162461bcd60e51b815260206004820181905260248201527f4f776e61626c653a2063616c6c6572206973206e6f7420746865206f776e65726044820152606401610448565b600180546001600160a01b038381166001600160a01b0319831681179093556040519116919082907f8be0079c531659141344cd1fd0a4f28419497f9722a3daafe3b4186f6b6457e090600090a35050565b6001600160a01b0381166121125760405162461bcd60e51b815260040161044890612979565b60006001600160a01b031660068360405161212d9190612797565b908152604051908190036020019020546001600160a01b03161461218a5760405162461bcd60e51b8152602060048201526014602482015273417373657420616c72656164792065786973747360601b6044820152606401610448565b60008190506000816001600160a01b031663feaf968c6040518163ffffffff1660e01b815260040160a060405180830381865afa1580156121cf573d6000803e3d6000fd5b505050506040513d601f19601f820116820180604052508101906121f39190612929565b505050915050600081136122195760405162461bcd60e51b815260040161044890612979565b8260068560405161222a9190612797565b90815260405190819003602001902080546001600160a01b03929092166001600160a01b0319909216919091179055600780546001810182556000919091527fa66cc928b5edb82af9bd49922954155ab7b0942694bea4ce44661d9a8736c688016122958582612b4c565b507f77780d19d6f850ec861d508f6035068d0b68fb9d334887c55393910e9b2951ea84846040516122c7929190612cb0565b60405180910390a150505050565b6000806002846040516122e89190612797565b908152602001604051809103902090506000836123095781600a015461230f565b81600901545b90508082600b01546123219190612c8e565b95945050505050565b5080546123369061282d565b6000825580601f10612346575050565b601f016020900490600052602060002090810190610a4691905b808211156123745760008155600101612360565b5090565b634e487b7160e01b600052604160045260246000fd5b600082601f83011261239f57600080fd5b813567ffffffffffffffff808211156123ba576123ba612378565b604051601f8301601f19908116603f011681019082821181831017156123e2576123e2612378565b816040528381528660208588010111156123fb57600080fd5b836020870160208301376000602085830101528094505050505092915050565b8035801515811461242b57600080fd5b919050565b6000806040838503121561244357600080fd5b823567ffffffffffffffff81111561245a57600080fd5b6124668582860161238e565b9250506124756020840161241b565b90509250929050565b60006020828403121561249057600080fd5b813567ffffffffffffffff8111156124a757600080fd5b6124b38482850161238e565b949350505050565b80356001600160a01b038116811461242b57600080fd5b600080604083850312156124e557600080fd5b823567ffffffffffffffff8111156124fc57600080fd5b6125088582860161238e565b925050612475602084016124bb565b60005b8381101561253257818101518382015260200161251a565b50506000910152565b60008151808452612553816020860160208601612517565b601f01601f19169290920160200192915050565b602081526125816020820183516001600160a01b03169052565b602082015160408201526040820151606082015260608201516080820152600060808301516125b460a084018215159052565b5060a08301516102008060c08501526125d161022085018361253b565b915060c085015160e085015260e08501516101008181870152808701519150506101206126018187018315159052565b86015190506101406126168682018315159052565b86015161016086810191909152860151610180808701919091528601516101a08087019190915286015190506101c06126528187018315159052565b8601516101e08681019190915290950151151593019290925250919050565b6000602080830181845280855180835260408601915060408160051b870101925083870160005b828110156126c657603f198886030184526126b485835161253b565b94509285019290850190600101612698565b5092979650505050505050565b6000602082840312156126e557600080fd5b6126ee826124bb565b9392505050565b600080600080600080600060e0888a03121561271057600080fd5b873567ffffffffffffffff8082111561272857600080fd5b6127348b838c0161238e565b985060208a0135975060408a0135965061275060608b0161241b565b955060808a013591508082111561276657600080fd5b506127738a828b0161238e565b93505060a0880135915061278960c0890161241b565b905092959891949750929550565b600082516127a9818460208701612517565b9190910192915050565b634e487b7160e01b600052601160045260246000fd5b6000600182016127db576127db6127b3565b5060010190565b80820180821115611cbd57611cbd6127b3565b608081526000612808608083018761253b565b6001600160a01b03959095166020830152509115156040830152606090910152919050565b600181811c9082168061284157607f821691505b60208210810361286157634e487b7160e01b600052602260045260246000fd5b50919050565b600081546128748161282d565b6001828116801561288c57600181146128a1576128d0565b60ff19841687528215158302870194506128d0565b8560005260208060002060005b858110156128c75781548a8201529084019082016128ae565b50505082870194505b5050505092915050565b60006126ee8284612867565b6020808252600f908201526e105cdcd95d081b9bdd08199bdd5b99608a1b604082015260600190565b805169ffffffffffffffffffff8116811461242b57600080fd5b600080600080600060a0868803121561294157600080fd5b61294a8661290f565b945060208601519350604086015192506060860151915061296d6080870161290f565b90509295509295909350565b602080825260129082015271125b9d985b1a59081c1c9a58d9481999595960721b604082015260600190565b6060815260006129b8606083018661253b565b93151560208301525060400152919050565b634e487b7160e01b600052603260045260246000fd5b81810381811115611cbd57611cbd6127b3565b601f821115612a3d57600081815260208120601f850160051c81016020861015612a1a5750805b601f850160051c820191505b81811015612a3957828155600101612a26565b5050505b505050565b818103612a4d575050565b612a57825461282d565b67ffffffffffffffff811115612a6f57612a6f612378565b612a8381612a7d845461282d565b846129f3565b6000601f821160018114612ab75760008315612a9f5750848201545b600019600385901b1c1916600184901b178455612b1c565b600085815260209020601f19841690600086815260209020845b83811015612af15782860154825560019586019590910190602001612ad1565b5085831015612b0f5781850154600019600388901b60f8161c191681555b50505060018360011b0184555b5050505050565b634e487b7160e01b600052603160045260246000fd5b6020815260006126ee602083018461253b565b815167ffffffffffffffff811115612b6657612b66612378565b612b7481612a7d845461282d565b602080601f831160018114612ba95760008415612b915750858301515b600019600386901b1c1916600185901b178555612a39565b600085815260208120601f198616915b82811015612bd857888601518255948401946001909101908401612bb9565b5085821015612bf65787850151600019600388901b60f8161c191681555b5050505050600190811b01905550565b60a081526000612c1960a083018861253b565b6001600160a01b0387811660208501528616604084015260608301859052828103608084015261116c818561253b565b606081526000612c5c606083018661253b565b6001600160a01b039490941660208301525060400152919050565b8082028115828204841417611cbd57611cbd6127b3565b600082612cab57634e487b7160e01b600052601260045260246000fd5b500490565b604081526000612cc3604083018561253b565b905060018060a01b0383166020830152939250505056fea264697066735822122050dfd831f2822adcbf6236fa614c98878e87a17dcb9aa90396fd7e932ab41e5f64736f6c63430008130033",
  "linkReferences": {},
  "deployedLinkReferences": {}
}