{
  "_format": "hh-sol-artifact-1",
  "contractName": "Celocaster",
  "sourceName": "contracts/FlattenedCelocaster.sol",
  "abi": [
    {
      "inputs": [
        {
          "internalType": "string[]",
          "name": "assets",
          "type": "string[]"
        },
        {
          "internalType": "address[]",
          "name": "priceFeeds",
          "type": "address[]"
        }
      ],
      "stateMutability": "nonpayable",
      "type": "constructor"
    },
    {
      "anonymous": false,
      "inputs": [
        {
          "indexed": false,
          "internalType": "string",
          "name": "symbol",
          "type": "string"
        },
        {
          "indexed": false,
          "internalType": "address",
          "name": "priceFeed",
          "type": "address"
        }
      ],
      "name": "AssetAdded",
      "type": "event"
    },
    {
      "anonymous": false,
      "inputs": [
        {
          "indexed": false,
          "internalType": "string",
          "name": "symbol",
          "type": "string"
        }
      ],
      "name": "AssetRemoved",
      "type": "event"
    },
    {
      "anonymous": false,
      "inputs": [
        {
          "indexed": false,
          "internalType": "string",
          "name": "betId",
          "type": "string"
        },
        {
          "indexed": false,
          "internalType": "address",
          "name": "betContract",
          "type": "address"
        },
        {
          "indexed": false,
          "internalType": "address",
          "name": "creator",
          "type": "address"
        },
        {
          "indexed": false,
          "internalType": "uint256",
          "name": "stakeAmount",
          "type": "uint256"
        },
        {
          "indexed": false,
          "internalType": "string",
          "name": "asset",
          "type": "string"
        }
      ],
      "name": "BetCreated",
      "type": "event"
    },
    {
      "anonymous": false,
      "inputs": [
        {
          "indexed": false,
          "internalType": "string",
          "name": "betId",
          "type": "string"
        },
        {
          "indexed": false,
          "internalType": "bool",
          "name": "yayWon",
          "type": "bool"
        },
        {
          "indexed": false,
          "internalType": "uint256",
          "name": "totalPrize",
          "type": "uint256"
        }
      ],
      "name": "BetResolved",
      "type": "event"
    },
    {
      "anonymous": false,
      "inputs": [
        {
          "indexed": true,
          "internalType": "address",
          "name": "previousOwner",
          "type": "address"
        },
        {
          "indexed": true,
          "internalType": "address",
          "name": "newOwner",
          "type": "address"
        }
      ],
      "name": "OwnershipTransferred",
      "type": "event"
    },
    {
      "anonymous": false,
      "inputs": [
        {
          "indexed": false,
          "internalType": "string",
          "name": "betId",
          "type": "string"
        },
        {
          "indexed": false,
          "internalType": "address",
          "name": "winner",
          "type": "address"
        },
        {
          "indexed": false,
          "internalType": "uint256",
          "name": "amount",
          "type": "uint256"
        }
      ],
      "name": "PrizeDistributed",
      "type": "event"
    },
    {
      "anonymous": false,
      "inputs": [
        {
          "indexed": false,
          "internalType": "string",
          "name": "betId",
          "type": "string"
        },
        {
          "indexed": false,
          "internalType": "address",
          "name": "voter",
          "type": "address"
        },
        {
          "indexed": false,
          "internalType": "bool",
          "name": "isYay",
          "type": "bool"
        },
        {
          "indexed": false,
          "internalType": "uint256",
          "name": "amount",
          "type": "uint256"
        }
      ],
      "name": "VoteCast",
      "type": "event"
    },
    {
      "inputs": [],
      "name": "MAX_DURATION",
      "outputs": [
        {
          "internalType": "uint256",
          "name": "",
          "type": "uint256"
        }
      ],
      "stateMutability": "view",
      "type": "function"
    },
    {
      "inputs": [],
      "name": "MIN_DURATION",
      "outputs": [
        {
          "internalType": "uint256",
          "name": "",
          "type": "uint256"
        }
      ],
      "stateMutability": "view",
      "type": "function"
    },
    {
      "inputs": [],
      "name": "MIN_VOTE_STAKE",
      "outputs": [
        {
          "internalType": "uint256",
          "name": "",
          "type": "uint256"
        }
      ],
      "stateMutability": "view",
      "type": "function"
    },
    {
      "inputs": [
        {
          "internalType": "string",
          "name": "symbol",
          "type": "string"
        },
        {
          "internalType": "address",
          "name": "priceFeed",
          "type": "address"
        }
      ],
      "name": "addAsset",
      "outputs": [],
      "stateMutability": "nonpayable",
      "type": "function"
    },
    {
      "inputs": [
        {
          "internalType": "string",
          "name": "betId",
          "type": "string"
        },
        {
          "internalType": "bool",
          "name": "isYay",
          "type": "bool"
        }
      ],
      "name": "castVote",
      "outputs": [],
      "stateMutability": "payable",
      "type": "function"
    },
    {
      "inputs": [
        {
          "internalType": "string",
          "name": "betId",
          "type": "string"
        }
      ],
      "name": "claimPrize",
      "outputs": [],
      "stateMutability": "nonpayable",
      "type": "function"
    },
    {
      "inputs": [
        {
          "internalType": "string",
          "name": "betId",
          "type": "string"
        },
        {
          "internalType": "uint256",
          "name": "voteStake",
          "type": "uint256"
        },
        {
          "internalType": "uint256",
          "name": "duration",
          "type": "uint256"
        },
        {
          "internalType": "bool",
          "name": "isVerified",
          "type": "bool"
        },
        {
          "internalType": "string",
          "name": "asset",
          "type": "string"
        },
        {
          "internalType": "uint256",
          "name": "priceThreshold",
          "type": "uint256"
        },
        {
          "internalType": "bool",
          "name": "isPump",
          "type": "bool"
        }
      ],
      "name": "createBet",
      "outputs": [],
      "stateMutability": "payable",
      "type": "function"
    },
    {
      "inputs": [
        {
          "internalType": "string",
          "name": "betId",
          "type": "string"
        }
      ],
      "name": "getBetInfo",
      "outputs": [
        {
          "components": [
            {
              "internalType": "address",
              "name": "creator",
              "type": "address"
            },
            {
              "internalType": "uint256",
              "name": "platformStake",
              "type": "uint256"
            },
            {
              "internalType": "uint256",
              "name": "voteStake",
              "type": "uint256"
            },
            {
              "internalType": "uint256",
              "name": "expiryTime",
              "type": "uint256"
            },
            {
              "internalType": "bool",
              "name": "isVerified",
              "type": "bool"
            },
            {
              "internalType": "string",
              "name": "asset",
              "type": "string"
            },
            {
              "internalType": "uint256",
              "name": "startPrice",
              "type": "uint256"
            },
            {
              "internalType": "uint256",
              "name": "priceThreshold",
              "type": "uint256"
            },
            {
              "internalType": "bool",
              "name": "isPump",
              "type": "bool"
            },
            {
              "internalType": "bool",
              "name": "isResolved",
              "type": "bool"
            },
            {
              "internalType": "uint256",
              "name": "totalYayVotes",
              "type": "uint256"
            },
            {
              "internalType": "uint256",
              "name": "totalNayVotes",
              "type": "uint256"
            },
            {
              "internalType": "uint256",
              "name": "prizePool",
              "type": "uint256"
            },
            {
              "internalType": "bool",
              "name": "yayWon",
              "type": "bool"
            },
            {
              "internalType": "uint256",
              "name": "endPrice",
              "type": "uint256"
            },
            {
              "internalType": "bool",
              "name": "thresholdMet",
              "type": "bool"
            }
          ],
          "internalType": "struct ICelocaster.BetInfo",
          "name": "",
          "type": "tuple"
        }
      ],
      "stateMutability": "view",
      "type": "function"
    },
    {
      "inputs": [
        {
          "internalType": "string",
          "name": "asset",
          "type": "string"
        }
      ],
      "name": "getPriceFeed",
      "outputs": [
        {
          "internalType": "address",
          "name": "",
          "type": "address"
        }
      ],
      "stateMutability": "view",
      "type": "function"
    },
    {
      "inputs": [],
      "name": "getSupportedAssets",
      "outputs": [
        {
          "internalType": "string[]",
          "name": "",
          "type": "string[]"
        }
      ],
      "stateMutability": "view",
      "type": "function"
    },
    {
      "inputs": [
        {
          "internalType": "string",
          "name": "betId",
          "type": "string"
        },
        {
          "internalType": "address",
          "name": "user",
          "type": "address"
        }
      ],
      "name": "getUserVote",
      "outputs": [
        {
          "internalType": "bool",
          "name": "isYay",
          "type": "bool"
        },
        {
          "internalType": "uint256",
          "name": "amount",
          "type": "uint256"
        }
      ],
      "stateMutability": "view",
      "type": "function"
    },
    {
      "inputs": [
        {
          "internalType": "string",
          "name": "betId",
          "type": "string"
        },
        {
          "internalType": "address",
          "name": "user",
          "type": "address"
        }
      ],
      "name": "getVoteDetails",
      "outputs": [
        {
          "internalType": "bool",
          "name": "isYay",
          "type": "bool"
        },
        {
          "internalType": "uint256",
          "name": "amount",
          "type": "uint256"
        },
        {
          "internalType": "bool",
          "name": "claimed",
          "type": "bool"
        }
      ],
      "stateMutability": "view",
      "type": "function"
    },
    {
      "inputs": [
        {
          "internalType": "string",
          "name": "betId",
          "type": "string"
        }
      ],
      "name": "getWinningVote",
      "outputs": [
        {
          "internalType": "bool",
          "name": "yayWon",
          "type": "bool"
        }
      ],
      "stateMutability": "view",
      "type": "function"
    },
    {
      "inputs": [
        {
          "internalType": "string",
          "name": "betId",
          "type": "string"
        },
        {
          "internalType": "address",
          "name": "user",
          "type": "address"
        }
      ],
      "name": "hasUserClaimed",
      "outputs": [
        {
          "internalType": "bool",
          "name": "",
          "type": "bool"
        }
      ],
      "stateMutability": "view",
      "type": "function"
    },
    {
      "inputs": [],
      "name": "owner",
      "outputs": [
        {
          "internalType": "address",
          "name": "",
          "type": "address"
        }
      ],
      "stateMutability": "view",
      "type": "function"
    },
    {
      "inputs": [],
      "name": "platformStake",
      "outputs": [
        {
          "internalType": "uint256",
          "name": "",
          "type": "uint256"
        }
      ],
      "stateMutability": "view",
      "type": "function"
    },
    {
      "inputs": [
        {
          "internalType": "string",
          "name": "symbol",
          "type": "string"
        }
      ],
      "name": "removeAsset",
      "outputs": [],
      "stateMutability": "nonpayable",
      "type": "function"
    },
    {
      "inputs": [],
      "name": "renounceOwnership",
      "outputs": [],
      "stateMutability": "nonpayable",
      "type": "function"
    },
    {
      "inputs": [
        {
          "internalType": "string",
          "name": "betId",
          "type": "string"
        }
      ],
      "name": "resolveBet",
      "outputs": [],
      "stateMutability": "nonpayable",
      "type": "function"
    },
    {
      "inputs": [
        {
          "internalType": "uint256",
          "name": "newStake",
          "type": "uint256"
        }
      ],
      "name": "setPlatformStake",
      "outputs": [],
      "stateMutability": "nonpayable",
      "type": "function"
    },
    {
      "inputs": [
        {
          "internalType": "address",
          "name": "newOwner",
          "type": "address"
        }
      ],
      "name": "transferOwnership",
      "outputs": [],
      "stateMutability": "nonpayable",
      "type": "function"
    }
  ],
  "bytecode": "0x60806040526729a2241af62c00006002553480156200001d57600080fd5b50604051620035cd380380620035cd8339810160408190526200004091620004da565b600160005562000050336200011c565b8051825114620000a75760405162461bcd60e51b815260206004820152601660248201527f417272617973206c656e677468206d69736d617463680000000000000000000060448201526064015b60405180910390fd5b60005b82518110156200011357620000fe838281518110620000cd57620000cd62000618565b6020026020010151838381518110620000ea57620000ea62000618565b60200260200101516200016e60201b60201c565b806200010a816200062e565b915050620000aa565b50505062000887565b600180546001600160a01b038381166001600160a01b0319831681179093556040519116919082907f8be0079c531659141344cd1fd0a4f28419497f9722a3daafe3b4186f6b6457e090600090a35050565b6001600160a01b038116620001bb5760405162461bcd60e51b8152602060048201526012602482015271125b9d985b1a59081c1c9a58d9481999595960721b60448201526064016200009e565b60006001600160a01b0316600783604051620001d8919062000656565b908152604051908190036020019020546001600160a01b031614620002405760405162461bcd60e51b815260206004820152601460248201527f417373657420616c72656164792065786973747300000000000000000000000060448201526064016200009e565b60008190506000816001600160a01b031663feaf968c6040518163ffffffff1660e01b815260040160a060405180830381865afa15801562000286573d6000803e3d6000fd5b505050506040513d601f19601f82011682018060405250810190620002ac919062000691565b50505091505060008113620002f95760405162461bcd60e51b8152602060048201526012602482015271125b9d985b1a59081c1c9a58d9481999595960721b60448201526064016200009e565b826007856040516200030c919062000656565b90815260405190819003602001902080546001600160a01b03929092166001600160a01b0319909216919091179055600880546001810182556000919091527ff3f7a9fe364faab93b216da50a3214154f22a0a2b415b23a84c8169e8b636ee30162000379858262000775565b507f77780d19d6f850ec861d508f6035068d0b68fb9d334887c55393910e9b2951ea8484604051620003ad92919062000841565b60405180910390a150505050565b634e487b7160e01b600052604160045260246000fd5b604051601f8201601f191681016001600160401b0381118282101715620003fc57620003fc620003bb565b604052919050565b60006001600160401b03821115620004205762000420620003bb565b5060051b60200190565b60005b83811015620004475781810151838201526020016200042d565b50506000910152565b600082601f8301126200046257600080fd5b815160206200047b620004758362000404565b620003d1565b82815260059290921b840181019181810190868411156200049b57600080fd5b8286015b84811015620004cf5780516001600160a01b0381168114620004c15760008081fd5b83529183019183016200049f565b509695505050505050565b6000806040808486031215620004ef57600080fd5b83516001600160401b03808211156200050757600080fd5b8186019150601f87818401126200051d57600080fd5b8251602062000530620004758362000404565b82815260059290921b8501810191818101908b8411156200055057600080fd5b8287015b84811015620005e2578051878111156200056e5760008081fd5b8801603f81018e13620005815760008081fd5b8481015188811115620005985762000598620003bb565b620005ab818901601f19168701620003d1565b8181528f8c838501011115620005c15760008081fd5b620005d2828883018e86016200042a565b8552505091830191830162000554565b50918a015191985090955050505080831115620005fe57600080fd5b50506200060e8582860162000450565b9150509250929050565b634e487b7160e01b600052603260045260246000fd5b6000600182016200064f57634e487b7160e01b600052601160045260246000fd5b5060010190565b600082516200066a8184602087016200042a565b9190910192915050565b80516001600160501b03811681146200068c57600080fd5b919050565b600080600080600060a08688031215620006aa57600080fd5b620006b58662000674565b9450602086015193506040860151925060608601519150620006da6080870162000674565b90509295509295909350565b600181811c90821680620006fb57607f821691505b6020821081036200071c57634e487b7160e01b600052602260045260246000fd5b50919050565b601f8211156200077057600081815260208120601f850160051c810160208610156200074b5750805b601f850160051c820191505b818110156200076c5782815560010162000757565b5050505b505050565b81516001600160401b03811115620007915762000791620003bb565b620007a981620007a28454620006e6565b8462000722565b602080601f831160018114620007e15760008415620007c85750858301515b600019600386901b1c1916600185901b1785556200076c565b600085815260208120601f198616915b828110156200081257888601518255948401946001909101908401620007f1565b5085821015620008315787850151600019600388901b60f8161c191681555b5050505050600190811b01905550565b6040815260008351806040840152620008628160608501602088016200042a565b6001600160a01b0393909316602083015250601f91909101601f191601606001919050565b612d3680620008976000396000f3fe60806040526004361061012a5760003560e01c80639c061a9b116100ab578063b6a6d1771161006f578063b6a6d17714610364578063e5406dbf1461037a578063e778fda11461039c578063f2fde38b146103b2578063f32b5e71146103d2578063fa73914c146103e557600080fd5b80639c061a9b146102ae578063a8343f56146102ce578063adc02a641461030d578063b1724b461461032d578063b50584b31461034457600080fd5b8063759af9ec116100f2578063759af9ec146101ce5780637ceb96dc146101ee5780637d3a6715146102255780638da5cb5b1461025257806395beeae81461028457600080fd5b806306caf8901461012f578063199edd7a1461015157806323cadfce1461016457806334ca020514610199578063715018a6146101b9575b600080fd5b34801561013b57600080fd5b5061014f61014a36600461238b565b610405565b005b61014f61015f36600461245c565b610475565b34801561017057600080fd5b5061018461017f3660046124c1565b6107d4565b60405190151581526020015b60405180910390f35b3480156101a557600080fd5b5061014f6101b4366004612506565b61081a565b3480156101c557600080fd5b5061014f610b2a565b3480156101da57600080fd5b5061014f6101e9366004612506565b610b3e565b3480156101fa57600080fd5b5061020e6102093660046124c1565b610ce5565b604080519215158352602083019190915201610190565b34801561023157600080fd5b50610245610240366004612506565b610d5b565b6040516101909190612593565b34801561025e57600080fd5b506001546001600160a01b03165b6040516001600160a01b039091168152602001610190565b34801561029057600080fd5b506102a067016345785d8a000081565b604051908152602001610190565b3480156102ba57600080fd5b506101846102c9366004612506565b610f71565b3480156102da57600080fd5b506102ee6102e93660046124c1565b61112d565b6040805193151584526020840192909252151590820152606001610190565b34801561031957600080fd5b5061014f6103283660046124c1565b6111a4565b34801561033957600080fd5b506102a062278d0081565b34801561035057600080fd5b5061026c61035f366004612506565b6111b6565b34801561037057600080fd5b506102a061012c81565b34801561038657600080fd5b5061038f6111e7565b604051610190919061269d565b3480156103a857600080fd5b506102a060025481565b3480156103be57600080fd5b5061014f6103cd3660046126ff565b6112c0565b61014f6103e0366004612721565b6112d1565b3480156103f157600080fd5b5061014f610400366004612506565b61194d565b61040d611bcb565b600081116104705760405162461bcd60e51b815260206004820152602560248201527f506c6174666f726d207374616b65206d75737420626520677265617465722074604482015264068616e20360dc1b60648201526084015b60405180910390fd5b600255565b61047d611c25565b600060038360405161048f91906127c3565b90815260405190819003602001902080549091506001600160a01b03166104ec5760405162461bcd60e51b815260206004820152601160248201527010995d08191bd95cdb89dd08195e1a5cdd607a1b6044820152606401610467565b6008810154610100900460ff161561053d5760405162461bcd60e51b815260206004820152601460248201527310995d08185b1c9958591e481c995cdbdb1d995960621b6044820152606401610467565b8060030154421061057e5760405162461bcd60e51b815260206004820152600b60248201526a10995d08195e1c1a5c995960aa1b6044820152606401610467565b806002015434146105c85760405162461bcd60e51b8152602060048201526014602482015273496e636f727265637420766f7465207374616b6560601b6044820152606401610467565b6004836040516105d891906127c3565b90815260408051602092819003830190203360009081529252902060010154156106345760405162461bcd60e51b815260206004820152600d60248201526c105b1c9958591e481d9bdd1959609a1b6044820152606401610467565b604080516060810182528315158152346020820152600081830152905160049061065f9086906127c3565b908152604080519182900360209081019092203360009081529083528190208351815490151560ff1991821617825592840151600182015592015160029092018054921515929091169190911790558115610713576009810180549060006106c6836127f5565b91905055506005836040516106db91906127c3565b908152604051908190036020908101909120805460018101825560009182529190200180546001600160a01b0319163317905561076e565b600a81018054906000610725836127f5565b919050555060068360405161073a91906127c3565b908152604051908190036020908101909120805460018101825560009182529190200180546001600160a01b031916331790555b3481600b016000828254610782919061280e565b90915550506040517f8f939c0e8da82099bc9be68995da582362fa8d3032227846326c305b0f2d2e37906107bd908590339086903490612821565b60405180910390a1506107d06001600055565b5050565b60006004836040516107e691906127c3565b90815260408051602092819003830190206001600160a01b0385166000908152925290206002015460ff1690505b92915050565b610822611c25565b600060038260405161083491906127c3565b90815260405190819003602001902080549091506001600160a01b03166108915760405162461bcd60e51b815260206004820152601160248201527010995d08191bd95cdb89dd08195e1a5cdd607a1b6044820152606401610467565b6008810154610100900460ff16156108de5760405162461bcd60e51b815260206004820152601060248201526f105b1c9958591e481c995cdbdb1d995960821b6044820152606401610467565b80600301544210156109245760405162461bcd60e51b815260206004820152600f60248201526e139bdd08195e1c1a5c9959081e595d608a1b6044820152606401610467565b600481015460009060ff1615610a935760006007836005016040516109499190612900565b908152604051908190036020019020546001600160a01b03169050806109815760405162461bcd60e51b81526004016104679061290c565b60008190506000816001600160a01b031663feaf968c6040518163ffffffff1660e01b815260040160a060405180830381865afa1580156109c6573d6000803e3d6000fd5b505050506040513d601f19601f820116820180604052508101906109ea919061294f565b50505091505060008113610a105760405162461bcd60e51b81526004016104679061299f565b6000610a20866006015483611c7e565b6007870154600d8801849055600e8801805460ff1916918310801592831790915591925090610a8457600687015460088801549084119060ff168015610a635750805b80610a7c5750600888015460ff16158015610a7c575080155b965050610a89565b600095505b5050505050610ab8565b50600a8101546009820154818111919003610ab857610ab183611cba565b5050610b1d565b600c8201805482151560ff1990911617905560088201805461ff001916610100179055600b8201546040517f2dc1320867f6e4d8057e00924f443f3d43424ea27536ef46d3a89cc75c02142191610b1291869185916129cb565b60405180910390a150505b610b276001600055565b50565b610b32611bcb565b610b3c6000612037565b565b610b46611bcb565b60006001600160a01b0316600782604051610b6191906127c3565b908152604051908190036020019020546001600160a01b031603610b975760405162461bcd60e51b81526004016104679061290c565b600781604051610ba791906127c3565b90815260405190819003602001902080546001600160a01b031916905560005b600854811015610caa57818051906020012060088281548110610bec57610bec6129f0565b90600052602060002001604051610c039190612900565b604051809103902003610c985760088054610c2090600190612a06565b81548110610c3057610c306129f0565b9060005260206000200160088281548110610c4d57610c4d6129f0565b906000526020600020019081610c639190612a68565b506008805480610c7557610c75612b49565b600190038181906000526020600020016000610c91919061233d565b9055610caa565b80610ca2816127f5565b915050610bc7565b507f7704a686b2fb3541aea5ffdeb387f0119accdfafd1824299e97eb81dee7be83581604051610cda9190612b5f565b60405180910390a150565b6000806000600485604051610cfa91906127c3565b9081526040805191829003602090810183206001600160a01b0388166000908152908252829020606084018352805460ff90811615158086526001830154938601849052600290920154161515939092019290925293509150509250929050565b610dee60405180610200016040528060006001600160a01b03168152602001600081526020016000815260200160008152602001600015158152602001606081526020016000815260200160008152602001600015158152602001600015158152602001600081526020016000815260200160008152602001600015158152602001600081526020016000151581525090565b600382604051610dfe91906127c3565b9081526040805191829003602090810183206102008401835280546001600160a01b0316845260018101549184019190915260028101549183019190915260038101546060830152600481015460ff161515608083015260058101805460a084019190610e6a90612859565b80601f0160208091040260200160405190810160405280929190818152602001828054610e9690612859565b8015610ee35780601f10610eb857610100808354040283529160200191610ee3565b820191906000526020600020905b815481529060010190602001808311610ec657829003601f168201915b50505091835250506006820154602082015260078201546040820152600882015460ff8082161515606084015261010091829004811615156080840152600984015460a0840152600a84015460c0840152600b84015460e0840152600c8401548116151591830191909152600d830154610120830152600e9092015490911615156101409091015292915050565b600080600383604051610f8491906127c3565b908152604051908190036020019020600881015490915060ff61010090910416610fe35760405162461bcd60e51b815260206004820152601060248201526f10995d081b9bdd081c995cdbdb1d995960821b6044820152606401610467565b600481015460ff16156111155760006007826005016040516110059190612900565b908152604051908190036020019020546001600160a01b031690508061103d5760405162461bcd60e51b81526004016104679061290c565b60008190506000816001600160a01b031663feaf968c6040518163ffffffff1660e01b815260040160a060405180830381865afa158015611082573d6000803e3d6000fd5b505050506040513d601f19601f820116820180604052508101906110a6919061294f565b50505091505060006110bc856006015483611c7e565b90508460070154811061110857600685015460088601549083119060ff1680156110e35750805b806110fc5750600886015460ff161580156110fc575080155b98975050505050505050565b5060009695505050505050565b600a8101546009909101541192915050565b50919050565b60008060008060048660405161114391906127c3565b90815260408051602092819003830181206001600160a01b0398909816600090815297835296819020606088018252805460ff9081161515808a526001830154948a0185905260029092015416151597909101879052979096509350505050565b6111ac611bcb565b6107d08282612089565b60006007826040516111c891906127c3565b908152604051908190036020019020546001600160a01b031692915050565b60606008805480602002602001604051908101604052809291908181526020016000905b828210156112b757838290600052602060002001805461122a90612859565b80601f016020809104026020016040519081016040528092919081815260200182805461125690612859565b80156112a35780601f10611278576101008083540402835291602001916112a3565b820191906000526020600020905b81548152906001019060200180831161128657829003601f168201915b50505050508152602001906001019061120b565b50505050905090565b6112c8611bcb565b610b2781612272565b6112d9611c25565b600254341461131e5760405162461bcd60e51b81526020600482015260116024820152704d757374207374616b6520332043454c4f60781b6044820152606401610467565b67016345785d8a000086101561136b5760405162461bcd60e51b8152602060048201526012602482015271566f7465207374616b6520746f6f206c6f7760701b6044820152606401610467565b61012c8510158015611380575062278d008511155b6113bf5760405162461bcd60e51b815260206004820152601060248201526f24b73b30b634b210323ab930ba34b7b760811b6044820152606401610467565b60006001600160a01b03166003886040516113da91906127c3565b908152604051908190036020019020546001600160a01b0316146114355760405162461bcd60e51b815260206004820152601260248201527142657420616c72656164792065786973747360701b6044820152606401610467565b831561173d57600060078460405161144d91906127c3565b908152604051908190036020019020546001600160a01b03169050806114a95760405162461bcd60e51b8152602060048201526011602482015270155b9cdd5c1c1bdc9d195908185cdcd95d607a1b6044820152606401610467565b6000831180156114ba575060148311155b6114fa5760405162461bcd60e51b8152602060048201526011602482015270125b9d985b1a59081d1a1c995cda1bdb19607a1b6044820152606401610467565b60008190506000816001600160a01b031663feaf968c6040518163ffffffff1660e01b815260040160a060405180830381865afa15801561153f573d6000803e3d6000fd5b505050506040513d601f19601f82011682018060405250810190611563919061294f565b505050915050600081136115895760405162461bcd60e51b81526004016104679061299f565b60408051610200810182523381523460208201529081018a9052606081016115b18a4261280e565b81526020016001151581526020018781526020018281526020018681526020018515158152602001600015158152602001600081526020016000815260200160008152602001600015158152602001600081526020016000151581525060038b60405161161e91906127c3565b9081526040805160209281900383019020835181546001600160a01b0319166001600160a01b03909116178155918301516001830155820151600282015560608201516003820155608082015160048201805460ff191691151591909117905560a082015160058201906116929082612b72565b5060c0820151600682015560e0820151600782015561010080830151600883018054610120860151151590930261ff00199215159290921661ffff19909316929092171790556101408201516009820155610160820151600a820155610180820151600b8201556101a0820151600c8201805491151560ff199283161790556101c0830151600d8301556101e090920151600e909101805491151591909216179055506118fb915050565b604080516102008101825233815234602082015290810187905260608101611765874261280e565b8152602001600015158152602001604051806020016040528060008152508152602001600081526020016000815260200160001515815260200160001515815260200160008152602001600081526020016000815260200160001515815260200160008152602001600015158152506003886040516117e491906127c3565b9081526040805160209281900383019020835181546001600160a01b0319166001600160a01b03909116178155918301516001830155820151600282015560608201516003820155608082015160048201805460ff191691151591909117905560a082015160058201906118589082612b72565b5060c0820151600682015560e0820151600782015561010080830151600883018054610120860151151590930261ff00199215159290921661ffff19909316929092171790556101408201516009820155610160820151600a820155610180820151600b8201556101a0820151600c8201805491151560ff199283161790556101c0830151600d8301556101e090920151600e9091018054911515919092161790555b7f21e684be21319ba5ef007edca3bbc60e1ed7354bc368aa05dcd462f779ffef758730333487604051611932959493929190612c2c565b60405180910390a16119446001600055565b50505050505050565b611955611c25565b600060038260405161196791906127c3565b908152604051908190036020019020600881015490915060ff610100909104166119c65760405162461bcd60e51b815260206004820152601060248201526f10995d081b9bdd081c995cdbdb1d995960821b6044820152606401610467565b60006004836040516119d891906127c3565b9081526040805160209281900383019020336000908152925290206001810154909150611a375760405162461bcd60e51b815260206004820152600d60248201526c139bc81d9bdd1948199bdd5b99609a1b6044820152606401610467565b600281015460ff1615611a7e5760405162461bcd60e51b815260206004820152600f60248201526e105b1c9958591e4818db185a5b5959608a1b6044820152606401610467565b600c820154815460ff90811615159116151514611acb5760405162461bcd60e51b815260206004820152600b60248201526a2234b2103737ba103bb4b760a91b6044820152606401610467565b60028101805460ff19166001179055600c820154600090611af090859060ff166122e8565b604051909150600090339083908381818185875af1925050503d8060008114611b35576040519150601f19603f3d011682016040523d82523d6000602084013e611b3a565b606091505b5050905080611b825760405162461bcd60e51b81526020600482015260146024820152734661696c656420746f2073656e64207072697a6560601b6044820152606401610467565b7f03fcbbdf8f723f64756f2a8bd13039d673bfda48e348d21bc292b1a5a6b1746e853384604051611bb593929190612c6f565b60405180910390a150505050610b276001600055565b6001546001600160a01b03163314610b3c5760405162461bcd60e51b815260206004820181905260248201527f4f776e61626c653a2063616c6c6572206973206e6f7420746865206f776e65726044820152606401610467565b600260005403611c775760405162461bcd60e51b815260206004820152601f60248201527f5265656e7472616e637947756172643a207265656e7472616e742063616c6c006044820152606401610467565b6002600055565b600082821115611caf5782611c938184612a06565b611c9e906064612c9d565b611ca89190612cb4565b9050610814565b82611c938382612a06565b6000600382604051611ccc91906127c3565b9081526020016040518091039020905060005b600583604051611cef91906127c3565b90815260405190819003602001902054811015611e7f576000600584604051611d1891906127c3565b90815260200160405180910390208281548110611d3757611d376129f0565b6000918252602090912001546040516001600160a01b039091169150600490611d619086906127c3565b90815260408051602092819003830190206001600160a01b0384166000908152925290206002015460ff16611e6c576001600485604051611da291906127c3565b90815260408051602092819003830181206001600160a01b0386166000818152919094529182206002908101805460ff19169515159590951790945592860154909260006040518083038185875af1925050503d8060008114611e21576040519150601f19603f3d011682016040523d82523d6000602084013e611e26565b606091505b5050905080611e6a5760405162461bcd60e51b815260206004820152601060248201526f11985a5b1959081d1bc81c99599d5b9960821b6044820152606401610467565b505b5080611e77816127f5565b915050611cdf565b5060005b600683604051611e9391906127c3565b90815260405190819003602001902054811015612023576000600684604051611ebc91906127c3565b90815260200160405180910390208281548110611edb57611edb6129f0565b6000918252602090912001546040516001600160a01b039091169150600490611f059086906127c3565b90815260408051602092819003830190206001600160a01b0384166000908152925290206002015460ff16612010576001600485604051611f4691906127c3565b90815260408051602092819003830181206001600160a01b0386166000818152919094529182206002908101805460ff19169515159590951790945592860154909260006040518083038185875af1925050503d8060008114611fc5576040519150601f19603f3d011682016040523d82523d6000602084013e611fca565b606091505b505090508061200e5760405162461bcd60e51b815260206004820152601060248201526f11985a5b1959081d1bc81c99599d5b9960821b6044820152606401610467565b505b508061201b816127f5565b915050611e83565b50600801805461ff00191661010017905550565b600180546001600160a01b038381166001600160a01b0319831681179093556040519116919082907f8be0079c531659141344cd1fd0a4f28419497f9722a3daafe3b4186f6b6457e090600090a35050565b6001600160a01b0381166120af5760405162461bcd60e51b81526004016104679061299f565b60006001600160a01b03166007836040516120ca91906127c3565b908152604051908190036020019020546001600160a01b0316146121275760405162461bcd60e51b8152602060048201526014602482015273417373657420616c72656164792065786973747360601b6044820152606401610467565b60008190506000816001600160a01b031663feaf968c6040518163ffffffff1660e01b815260040160a060405180830381865afa15801561216c573d6000803e3d6000fd5b505050506040513d601f19601f82011682018060405250810190612190919061294f565b505050915050600081136121b65760405162461bcd60e51b81526004016104679061299f565b826007856040516121c791906127c3565b90815260405190819003602001902080546001600160a01b03929092166001600160a01b0319909216919091179055600880546001810182556000919091527ff3f7a9fe364faab93b216da50a3214154f22a0a2b415b23a84c8169e8b636ee3016122328582612b72565b507f77780d19d6f850ec861d508f6035068d0b68fb9d334887c55393910e9b2951ea8484604051612264929190612cd6565b60405180910390a150505050565b61227a611bcb565b6001600160a01b0381166122df5760405162461bcd60e51b815260206004820152602660248201527f4f776e61626c653a206e6577206f776e657220697320746865207a65726f206160448201526564647265737360d01b6064820152608401610467565b610b2781612037565b6000806003846040516122fb91906127c3565b9081526020016040518091039020905060008361231c5781600a0154612322565b81600901545b90508082600b01546123349190612cb4565b95945050505050565b50805461234990612859565b6000825580601f10612359575050565b601f016020900490600052602060002090810190610b2791905b808211156123875760008155600101612373565b5090565b60006020828403121561239d57600080fd5b5035919050565b634e487b7160e01b600052604160045260246000fd5b600082601f8301126123cb57600080fd5b813567ffffffffffffffff808211156123e6576123e66123a4565b604051601f8301601f19908116603f0116810190828211818310171561240e5761240e6123a4565b8160405283815286602085880101111561242757600080fd5b836020870160208301376000602085830101528094505050505092915050565b8035801515811461245757600080fd5b919050565b6000806040838503121561246f57600080fd5b823567ffffffffffffffff81111561248657600080fd5b612492858286016123ba565b9250506124a160208401612447565b90509250929050565b80356001600160a01b038116811461245757600080fd5b600080604083850312156124d457600080fd5b823567ffffffffffffffff8111156124eb57600080fd5b6124f7858286016123ba565b9250506124a1602084016124aa565b60006020828403121561251857600080fd5b813567ffffffffffffffff81111561252f57600080fd5b61253b848285016123ba565b949350505050565b60005b8381101561255e578181015183820152602001612546565b50506000910152565b6000815180845261257f816020860160208601612543565b601f01601f19169290920160200192915050565b602081526125ad6020820183516001600160a01b03169052565b602082015160408201526040820151606082015260608201516080820152600060808301516125e060a084018215159052565b5060a08301516102008060c08501526125fd610220850183612567565b915060c085015160e085015260e085015161010081818701528087015191505061012061262d8187018315159052565b86015190506101406126428682018315159052565b86015161016086810191909152860151610180808701919091528601516101a08087019190915286015190506101c061267e8187018315159052565b8601516101e08681019190915290950151151593019290925250919050565b6000602080830181845280855180835260408601915060408160051b870101925083870160005b828110156126f257603f198886030184526126e0858351612567565b945092850192908501906001016126c4565b5092979650505050505050565b60006020828403121561271157600080fd5b61271a826124aa565b9392505050565b600080600080600080600060e0888a03121561273c57600080fd5b873567ffffffffffffffff8082111561275457600080fd5b6127608b838c016123ba565b985060208a0135975060408a0135965061277c60608b01612447565b955060808a013591508082111561279257600080fd5b5061279f8a828b016123ba565b93505060a088013591506127b560c08901612447565b905092959891949750929550565b600082516127d5818460208701612543565b9190910192915050565b634e487b7160e01b600052601160045260246000fd5b600060018201612807576128076127df565b5060010190565b80820180821115610814576108146127df565b6080815260006128346080830187612567565b6001600160a01b03959095166020830152509115156040830152606090910152919050565b600181811c9082168061286d57607f821691505b60208210810361112757634e487b7160e01b600052602260045260246000fd5b6000815461289a81612859565b600182811680156128b257600181146128c7576128f6565b60ff19841687528215158302870194506128f6565b8560005260208060002060005b858110156128ed5781548a8201529084019082016128d4565b50505082870194505b5050505092915050565b600061271a828461288d565b6020808252600f908201526e105cdcd95d081b9bdd08199bdd5b99608a1b604082015260600190565b805169ffffffffffffffffffff8116811461245757600080fd5b600080600080600060a0868803121561296757600080fd5b61297086612935565b945060208601519350604086015192506060860151915061299360808701612935565b90509295509295909350565b602080825260129082015271125b9d985b1a59081c1c9a58d9481999595960721b604082015260600190565b6060815260006129de6060830186612567565b93151560208301525060400152919050565b634e487b7160e01b600052603260045260246000fd5b81810381811115610814576108146127df565b601f821115612a6357600081815260208120601f850160051c81016020861015612a405750805b601f850160051c820191505b81811015612a5f57828155600101612a4c565b5050505b505050565b818103612a73575050565b612a7d8254612859565b67ffffffffffffffff811115612a9557612a956123a4565b612aa981612aa38454612859565b84612a19565b6000601f821160018114612add5760008315612ac55750848201545b600019600385901b1c1916600184901b178455612b42565b600085815260209020601f19841690600086815260209020845b83811015612b175782860154825560019586019590910190602001612af7565b5085831015612b355781850154600019600388901b60f8161c191681555b50505060018360011b0184555b5050505050565b634e487b7160e01b600052603160045260246000fd5b60208152600061271a6020830184612567565b815167ffffffffffffffff811115612b8c57612b8c6123a4565b612b9a81612aa38454612859565b602080601f831160018114612bcf5760008415612bb75750858301515b600019600386901b1c1916600185901b178555612a5f565b600085815260208120601f198616915b82811015612bfe57888601518255948401946001909101908401612bdf565b5085821015612c1c5787850151600019600388901b60f8161c191681555b5050505050600190811b01905550565b60a081526000612c3f60a0830188612567565b6001600160a01b038781166020850152861660408401526060830185905282810360808401526110fc8185612567565b606081526000612c826060830186612567565b6001600160a01b039490941660208301525060400152919050565b8082028115828204841417610814576108146127df565b600082612cd157634e487b7160e01b600052601260045260246000fd5b500490565b604081526000612ce96040830185612567565b905060018060a01b0383166020830152939250505056fea2646970667358221220971e210e87ca37b8078d707be2545cb96eb1b576eeac2ceefe6f7d2b1bd14aa864736f6c63430008130033",
  "linkReferences": {},
  "deployedLinkReferences": {}
}