{
  "_format": "hh-sol-artifact-1",
  "contractName": "BetcasterAutomation",
  "sourceName": "contracts/BetcasterAutomation.sol",
  "abi": [
    {
      "inputs": [
        {
          "internalType": "address",
          "name": "_betcaster",
          "type": "address"
        }
      ],
      "stateMutability": "nonpayable",
      "type": "constructor"
    },
    {
      "inputs": [
        {
          "internalType": "uint256",
          "name": "",
          "type": "uint256"
        }
      ],
      "name": "activeBets",
      "outputs": [
        {
          "internalType": "string",
          "name": "",
          "type": "string"
        }
      ],
      "stateMutability": "view",
      "type": "function"
    },
    {
      "inputs": [],
      "name": "betcaster",
      "outputs": [
        {
          "internalType": "contract IBetcaster",
          "name": "",
          "type": "address"
        }
      ],
      "stateMutability": "view",
      "type": "function"
    },
    {
      "inputs": [
        {
          "internalType": "bytes",
          "name": "",
          "type": "bytes"
        }
      ],
      "name": "checkUpkeep",
      "outputs": [
        {
          "internalType": "bool",
          "name": "upkeepNeeded",
          "type": "bool"
        },
        {
          "internalType": "bytes",
          "name": "performData",
          "type": "bytes"
        }
      ],
      "stateMutability": "view",
      "type": "function"
    },
    {
      "inputs": [
        {
          "internalType": "string",
          "name": "",
          "type": "string"
        }
      ],
      "name": "pendingResolution",
      "outputs": [
        {
          "internalType": "bool",
          "name": "",
          "type": "bool"
        }
      ],
      "stateMutability": "view",
      "type": "function"
    },
    {
      "inputs": [
        {
          "internalType": "bytes",
          "name": "performData",
          "type": "bytes"
        }
      ],
      "name": "performUpkeep",
      "outputs": [],
      "stateMutability": "nonpayable",
      "type": "function"
    },
    {
      "inputs": [
        {
          "internalType": "string",
          "name": "betId",
          "type": "string"
        }
      ],
      "name": "registerBet",
      "outputs": [],
      "stateMutability": "nonpayable",
      "type": "function"
    }
  ],
  "bytecode": "0x60a060405234801561001057600080fd5b50604051610ee4380380610ee483398101604081905261002f91610040565b6001600160a01b0316608052610070565b60006020828403121561005257600080fd5b81516001600160a01b038116811461006957600080fd5b9392505050565b608051610e446100a060003960008181610118015281816101a10152818161034401526104460152610e446000f3fe608060405234801561001057600080fd5b50600436106100625760003560e01c80632143f380146100675780634585e33b146100aa5780636e04ff0d146100bf5780638151c01e146100e0578063af768ee3146100f3578063eaf7b5e914610113575b600080fd5b610095610075366004610798565b805160208183018101805160008252928201919093012091525460ff1681565b60405190151581526020015b60405180910390f35b6100bd6100b8366004610818565b610152565b005b6100d26100cd366004610818565b610247565b6040516100a19291906108da565b6100bd6100ee366004610798565b61043b565b6101066101013660046108fd565b610519565b6040516100a19190610916565b61013a7f000000000000000000000000000000000000000000000000000000000000000081565b6040516001600160a01b0390911681526020016100a1565b600061016082840184610798565b90506000816040516101729190610930565b9081526040519081900360200190205460ff1615610242576040516334ca020560e01b81526001600160a01b037f000000000000000000000000000000000000000000000000000000000000000016906334ca0205906101d6908490600401610916565b600060405180830381600087803b1580156101f057600080fd5b505af1158015610204573d6000803e3d6000fd5b50505050600080826040516102199190610930565b908152604051908190036020019020805491151560ff19909216919091179055610242816105c5565b505050565b6000606060005b60015481101561041f5760006001828154811061026d5761026d61094c565b90600052602060002001805461028290610962565b80601f01602080910402602001604051908101604052809291908181526020018280546102ae90610962565b80156102fb5780601f106102d0576101008083540402835291602001916102fb565b820191906000526020600020905b8154815290600101906020018083116102de57829003601f168201915b505050505090506000816040516103129190610930565b9081526040519081900360200190205460ff161561040c57604051637d3a671560e01b81526000906001600160a01b037f00000000000000000000000000000000000000000000000000000000000000001690637d3a671590610379908590600401610916565b600060405180830381865afa158015610396573d6000803e3d6000fd5b505050506040513d6000823e601f3d908101601f191682016040526103be9190810190610a0d565b9050806060015142101580156103d75750806101200151155b1561040a576001826040516020016103ef9190610916565b60405160208183030381529060405294509450505050610434565b505b508061041781610b67565b91505061024e565b50506040805160208101909152600080825291505b9250929050565b336001600160a01b037f000000000000000000000000000000000000000000000000000000000000000016146104a85760405162461bcd60e51b815260206004820152600e60248201526d27b7363c902132ba31b0b9ba32b960911b604482015260640160405180910390fd5b60016000826040516104ba9190610930565b908152604051908190036020019020805491151560ff199092169190911790556001805480820182556000919091527fb10e2d527612073b26eecdfd717e6a320cf44b4afac2b0732d9fcbe2b7fa0cf6016105158282610bce565b5050565b6001818154811061052957600080fd5b90600052602060002001600091509050805461054490610962565b80601f016020809104026020016040519081016040528092919081815260200182805461057090610962565b80156105bd5780601f10610592576101008083540402835291602001916105bd565b820191906000526020600020905b8154815290600101906020018083116105a057829003601f168201915b505050505081565b60005b600154811015610515578180519060200120600182815481106105ed576105ed61094c565b906000526020600020016040516106049190610c8e565b6040518091039020036106975760018054610620908290610d04565b815481106106305761063061094c565b906000526020600020016001828154811061064d5761064d61094c565b9060005260206000200190816106639190610d1d565b50600180548061067557610675610df8565b60019003818190600052602060002001600061069191906106a9565b90555050565b806106a181610b67565b9150506105c8565b5080546106b590610962565b6000825580601f106106c5575050565b601f0160209004906000526020600020908101906106e391906106e6565b50565b5b808211156106fb57600081556001016106e7565b5090565b634e487b7160e01b600052604160045260246000fd5b604051610200810167ffffffffffffffff81118282101715610739576107396106ff565b60405290565b604051601f8201601f1916810167ffffffffffffffff81118282101715610768576107686106ff565b604052919050565b600067ffffffffffffffff82111561078a5761078a6106ff565b50601f01601f191660200190565b6000602082840312156107aa57600080fd5b813567ffffffffffffffff8111156107c157600080fd5b8201601f810184136107d257600080fd5b80356107e56107e082610770565b61073f565b8181528560208385010111156107fa57600080fd5b81602084016020830137600091810160200191909152949350505050565b6000806020838503121561082b57600080fd5b823567ffffffffffffffff8082111561084357600080fd5b818501915085601f83011261085757600080fd5b81358181111561086657600080fd5b86602082850101111561087857600080fd5b60209290920196919550909350505050565b60005b838110156108a557818101518382015260200161088d565b50506000910152565b600081518084526108c681602086016020860161088a565b601f01601f19169290920160200192915050565b82151581526040602082015260006108f560408301846108ae565b949350505050565b60006020828403121561090f57600080fd5b5035919050565b60208152600061092960208301846108ae565b9392505050565b6000825161094281846020870161088a565b9190910192915050565b634e487b7160e01b600052603260045260246000fd5b600181811c9082168061097657607f821691505b60208210810361099657634e487b7160e01b600052602260045260246000fd5b50919050565b80516001600160a01b03811681146109b357600080fd5b919050565b805180151581146109b357600080fd5b600082601f8301126109d957600080fd5b81516109e76107e082610770565b8181528460208386010111156109fc57600080fd5b6108f582602083016020870161088a565b600060208284031215610a1f57600080fd5b815167ffffffffffffffff80821115610a3757600080fd5b908301906102008286031215610a4c57600080fd5b610a54610715565b610a5d8361099c565b8152602083015160208201526040830151604082015260608301516060820152610a89608084016109b8565b608082015260a083015182811115610aa057600080fd5b610aac878286016109c8565b60a08301525060c083015160c082015260e083015160e08201526101009150610ad68284016109b8565b828201526101209150610aea8284016109b8565b918101919091526101408281015190820152610160808301519082015261018080830151908201526101a090610b218284016109b8565b828201526101c0915081830151828201526101e09150610b428284016109b8565b91810191909152949350505050565b634e487b7160e01b600052601160045260246000fd5b600060018201610b7957610b79610b51565b5060010190565b601f82111561024257600081815260208120601f850160051c81016020861015610ba75750805b601f850160051c820191505b81811015610bc657828155600101610bb3565b505050505050565b815167ffffffffffffffff811115610be857610be86106ff565b610bfc81610bf68454610962565b84610b80565b602080601f831160018114610c315760008415610c195750858301515b600019600386901b1c1916600185901b178555610bc6565b600085815260208120601f198616915b82811015610c6057888601518255948401946001909101908401610c41565b5085821015610c7e5787850151600019600388901b60f8161c191681555b5050505050600190811b01905550565b6000808354610c9c81610962565b60018281168015610cb45760018114610cc957610cf8565b60ff1984168752821515830287019450610cf8565b8760005260208060002060005b85811015610cef5781548a820152908401908201610cd6565b50505082870194505b50929695505050505050565b81810381811115610d1757610d17610b51565b92915050565b818103610d28575050565b610d328254610962565b67ffffffffffffffff811115610d4a57610d4a6106ff565b610d5881610bf68454610962565b6000601f821160018114610d8c5760008315610d745750848201545b600019600385901b1c1916600184901b178455610df1565b600085815260209020601f19841690600086815260209020845b83811015610dc65782860154825560019586019590910190602001610da6565b5085831015610de45781850154600019600388901b60f8161c191681555b50505060018360011b0184555b5050505050565b634e487b7160e01b600052603160045260246000fdfea26469706673582212205b87f52f3341cee0f019622f34099caf64255ed1dae20f52a47173c65500d57f64736f6c63430008130033",
  "linkReferences": {},
  "deployedLinkReferences": {}
}